:0805F3001205C11205FB80FB9B
:0201AB008F348F
:1001AD00E4F535AF351204680535E535C3940340E4
:1001BD00F2E4F5C8AF34FCFDFEFB7AC079A8F81265
:1001CD00005BE47BE07A2EF9F81200E6C3E49FFFB2
:1001DD00E49EFE74019DFDE49CFCE4FB7A01F9F8BC
:1001ED001200E68FCDAF34E4FCFDFEFB7AC079A89A
:1001FD00F812005BE47BE07A2EF9F81200E6C3E416
:10020D009FFFE49E74019DE49CE48FCCAF34FCFD14
:10021D00FEFB7AC079A8F812005BE47BE07A2EF938
:10022D00F81200E6C3E49FFFE49EFE74019DFDE419
:10023D009CFCE4FB7A01F9F81200E68FCBAF34E4B5
:10024D00FCFDFEFB7AC079A8F812005BE47BE07A36
:10025D002EF9F81200E6C3E49FFF8FCAC2CFD2ADCC
:02026D00D2CAF3
:01026F00226C
:060380008B348A3589363A
:10038600E4FFEF75F008A42408F808E6FA08E64A40
:100396006009EFC3940350030F80E7EF64036038EE
:1003A600AA35A936EF75F008A42408F8A63408A6DD
:1003B6000208A601EF75F008A4240BF8A60408A607
:1003C60005EF75F008A4240DF8A63908A63AEF75CE
:0803D600F008A4240FF8E4F67E
:0103DE0022FC
:03060B00D2AF2249
:03002B000202FCD2
:1002FC00C0E0C0F0C0D075D000C000C002C004C0C7
:03030C0005C00722
:10030F00C2CFE4FFEF75F008A42408F808E6FA0856
:10031F00E6AC024C6046EF75F008A4240BF8E6FC3F
:10032F0008E64C7028EF75F008A4240FF806EF7557
:10033F00F008A4240DF8E6FC08E6FD4C601EEF75EE
:10034F00F008A4240BF8A60408A605800FEF75F09B
:10035F0008A4240BF808E616187001160FBF03A4A3
:10036F00D007D005D004D002D000D0D0D0F0D0E04C
:01037F00324B
:1003DF00E4F534E53475F008A4240FF8E6D394005F
:1003EF004031E53475F008A42408F808E6FA08E669
:1003FF00F9120178E53475F008A4240FF816E534E6
:10040F0075F008A4240DF8E6FE08E64E7005AF342B
:0F041F001204680534E534C3940340B7020603A2
:10046800EF75F008A42408F87600087600087600EE
:10047800EF75F008A4240BF8E4F608F6EF75F00819
:10048800A4240DF8E4F608F6EF75F008A4240FF894
:03049800E4F62265
:040603004387012206
:0404C700023B0000F4
:040607007590FF22C9
:03060E00B2902285
:0B05C100E4F53DE53D70031205CC227F
:0805FB00E53D70031206112218
:0B05CC007F011201AB12052102060B9B
:030611000203DF02
:0905E1003132333435363738006D
:10052100753E02E53E7003020556E53EB401030245
:0B053100056BE53EB40203120003223C
:100556001206077BFF7A06790E753901753AF4E4BF
:05056600FDFC02038012
:10056B001200257BFF7A057980753901753AF4E421
:05057B00FDFC020380FD
:100003007F807E2512042E7BFF7A0579E112049B03
:100013007BFF7A0479E5753900753A0AE4FDFC0241
:02002300038058
:0304CB00013F00EE
:05002500AF3F0205EAF7
:10058000AF3F1205EA053FE53FD394094003E4F588
:020590003F2208
:0A05D7003F065B4F666D7D077F6FE6
:0905EA00EF9005D793F4F590227F
:1004CE0014200000000000000000000000000000EA
:0604DE0000000000000018
:10059200E4FEEE6F600A74202EF8E4F60EBE08F256
:0105A2002236
:1005A300E4FEEE6F600A74282EF8E4F60EBE08F23D
:0105B3002225
:0D05B400BF0A027F0D8F993099FDC2992278
:10042E008E348F357F081205921205A3438920AEB4
:10043E0034AF357C2E7DE012017EA804A905AA06F4
:10044E00AB077F007E707D997C141200E6EFF404FA
:0A045E00F58BF58D759850D28E22B3
:06049B008B348A3589361E
:1004A100E4FFE5306408601DAB34AA35A9368F82BC
:1004B10075830012002EFE600C74202530F8A6060C
:0504C10005300F80DD95
:0104C6002213
:1004E500E531B5300C6004FF120592E4F530F531C5
:0E04F5002274202531F8E6FF1205B4053122ED
:10053C00309816AF99E532C39408500B74282532C5
:09054C00F8EFF6F5900532C298B3
:010555002283
:10050300E533B5320C6004FF1205A3E4F532F5338D
:0E0513002274282533F8E6FF1205B4053322C2
:0300000002027089
:0C027000787FE4F6D8FD75813F0202B7EC
:10002E00BB010CE58229F582E5833AF583E0225087
:10003E0006E92582F8E622BBFE06E92582F8E222D1
:0D004E00E58229F582E5833AF583E49322EB
:10005B00E88FF0A4CC8BF0A42CFCE98EF0A42CFC44
:10006B008AF0EDA42CFCEA8EF0A4CDA8F08BF0A4C2
:10007B002DCC3825F0FDE98FF0A42CCD35F0FCEB21
:10008B008EF0A4FEA9F0EB8FF0A4CFC5F02ECD39E6
:0F009B00FEE43CFCEAA42DCE35F0FDE43CFC2253
:1000AA0075F008758200EF2FFFEE33FECD33CDCC0D
:1000BA0033CCC58233C5829BED9AEC99E582984090
:1000CA000CF582EE9BFEED9AFDEC99FC0FD5F0D66D
:1000DA00E4CEFBE4CDFAE4CCF9A88222B800C1B997
:1000EA000059BA002DEC8BF084CFCECDFCE5F0CBD5
:1000FA00F97818EF2FFFEE33FEED33FDEC33FCEB0E
:10010A0033FB10D703994004EB99FB0FD8E5E4F9C8
:10011A00FA227818EF2FFFEE33FEED33FDEC33FCB5
:10012A00C933C910D7059BE99A4007EC9BFCE99AA9
:10013A00F90FD8E0E4C9FAE4CCFB2275F010EF2FEE
:10014A00FFEE33FEED33FDCC33CCC833C810D707EE
:10015A009BEC9AE899400AED9BFDEC9AFCE899F829
:0E016A000FD5F0DAE4CDFBE4CCFAE4C8F922BC
:060178008A838982E47312
:10017E00EC8EF0A4CCC5F0CCCDF8EFA4CEC5F02D0E
:10018E00FDE43CFCE8A42EC8C5F03DFDE43CFCEFCC
:0D019E00A4FFE5F028FEE43DFDE43CFC225A
:10027C000205F3E493A3F8E493A34003F68001F2A0
:10028C0008DFF48029E493A3F85407240CC8C33383
:10029C00C4540F4420C8834004F456800146F6DF52
:1002AC00E4800B01020408102040809004C7E47E17
:1002BC00019360BCA3FF543F30E509541FFEE49347
:1002CC00A360010ECF54C025E060A840B8E493A30E
:1002DC00FAE493A3F8E493A3C8C582C8CAC583CA39
:1002EC00F0A3C8C582C8CAC583CADFE9DEE780BEF1
:0104E4000017
:00000001FF
