:080003001208DF12092280FB44
:10090200E4FDFCC3ED9FEC9E5015E4FBFA0BBB002B
:0F091200010AEB647D4A70F50DBD00010C80E415
:0109210022B3
:040A95007590FF2237
:03002800B2902271
:0308BB0001310008
:040A99007590FF2233
:0F09ED000531E531C394324005B290E4F5312273
:1008DF00E4F532E5327003020A17E532B401030280
:1008EF000A22E532B40203020AB7E532B403031257
:0308FF000A9D222D
:10092200E5327003020AB1E532B40103020AB4E50A
:1009320032B40203020A38E532B403031209C922AF
:0B0A17007F011201A61207F2020AC3C1
:030AB10002070138
:0B0A22007F0A1205DC120A2D020ABA3E
:030AB400020AA192
:030AB700020A9997
:0A0A38001209ED7F0A7E0002090298
:040A9D007590FF222F
:1009C900D2907FF47E01120902C2907FF47E010267
:0209D900090211
:1005DC008F215389F0438901AF21E4FCFDFEFB7AA6
:1005EC001B79B7F8120083E47BE07A2EF9F812013C
:1005FC000EC3E49FFFE49E74019DE49CE48F8AAFDC
:10060C0021FCFDFEFB7A1B79B7F8120083E47BE03A
:10061C007A2EF9F812010EC3E49FFFE49EFE7401DA
:10062C009DFDE49CFCE4FB7A01F9F812010E8F8C21
:07063C00C28DD2A9D28C226D
:100643008F20C28DC28CE4FCFDFEFB7A1B79B7F8C8
:10065300120083E47BE07A2EF9F812010EC3E49FC3
:10066300FFE49E74019DE49CE48F8AAF20FCFDFEB1
:10067300FB7A1B79B7F8120083E47BE07A2EF9F852
:1006830012010EC3E49FFFE49EFE74019DFDE49CF2
:0F069300FCE4FB7A01F9F812010E8F8CD28C2255
:030ABA00D2AF2296
:03000B0002075099
:10075000C0E0C0F0C083C082C0D075D000C000C06F
:1007600001C002C003C004C005C006C0077F0A1252
:100770000643120A72D007D006D005D004D003D0A9
:1007800002D001D000D0D0D082D083D0F0D0E032DF
:040AA1004387012264
:0B0A2D00E4F533E5337003120ABD222C
:080A7200E5337003120AC022F3
:030ABD00020AA585
:030AC0000209FC2C
:0308BE0001340002
:040AA5007590FF2227
:0F09FC000534E534C394324005B290E4F534225B
:0201A6008F21A7
:1001A800E4F522AF221207900522E522C39403400A
:1001B800F2E4F5C8AF21FCFDFEFB7A1B79B7F81213
:1001C8000083E47BE07A2EF9F812010EC3E49FFF66
:1001D800E49EFE74019DFDE49CFCE4FB7A01F9F8C1
:1001E80012010E8FCDAF21E4FCFDFEFB7A1B79B71F
:1001F800F8120083E47BE07A2EF9F812010EC3E4CA
:100208009FFFE49E74019DE49CE48FCCAF21FCFD2C
:10021800FEFB7A1B79B7F8120083E47BE07A2EF9AB
:10022800F812010EC3E49FFFE49EFE74019DFDE4F5
:100238009CFCE4FB7A01F9F812010E8FCBAF21E4A4
:10024800FCFDFEFB7A1B79B7F8120083E47BE07AA9
:100258002EF9F812010EC3E49FFF8FCAC2CFD2ADA8
:02026800D2CAF8
:01026A002271
:0606A2008B218A2289234E
:1006A800E4FFEF75F008A42408F808E6FA08E64A1B
:1006B8006009EFC3940350030F80E7EF64036038C9
:1006C800AA22A923EF75F008A42408F8A62108A6F1
:1006D8000208A601EF75F008A4240BF8A60408A6E2
:1006E80005EF75F008A4240DF8A62608A627EF75CF
:0806F800F008A4240FF8E4F659
:0107000022D6
:030AC300D2AF228D
:03002B00020403C9
:10040300C0E0C0F0C0D075D000C000C002C004C0BE
:0304130005C0071A
:10041600C2CFE4FFEF75F008A42408F808E6FA084E
:10042600E6AC024C6046EF75F008A4240BF8E6FC37
:1004360008E64C7028EF75F008A4240FF806EF754F
:10044600F008A4240DF8E6FC08E6FD4C601EEF75E6
:10045600F008A4240BF8A60408A605800FEF75F093
:1004660008A4240BF808E616187001160FBF03A49B
:10047600D007D005D004D002D000D0D0D0F0D0E044
:010486003243
:10070100E4F521E52175F008A4240FF8E6D394005F
:100711004031E52175F008A42408F808E6FA08E656
:10072100F91201A0E52175F008A4240FF816E521BE
:1007310075F008A4240DF8E6FE08E64E7005AF2119
:0F0741001207900521E521C3940340B7020AA9CE
:10079000EF75F008A42408F87600087600087600C3
:1007A000EF75F008A4240BF8E4F608F6EF75F008EE
:1007B000A4240DF8E4F608F6EF75F008A4240FF869
:0307C000E4F6223A
:040AA900438701225C
:1007F200753504E53570030209A0E535B40103023D
:100802000974E535B4020302098AE535B40303022B
:0B0812000846E535B4040312086E220E
:1009A000120A957BFF7A0079287526017527F4E4F1
:0509B000FDFC0206A29F
:10097400120AAD7BFF7A08791D7526017527F47D6F
:06098400017C000206A246
:10098A00120A817BFF7A0979DB7526017527F47DC6
:06099A00017C000206A230
:10084600120A8B7BFF7A0779C375260075270AE49F
:10085600FDFC1206A27BFF7A0979B575260175277C
:08086600F47D017C000206A2F2
:10086E00120A7A7BFF7A05790075260075270AE44D
:10087E00FDFC1206A27BFF7A087996752601752774
:08088E00F47D017C000206A2CA
:0608C100012C00012B00D8
:040AAD007590FF221F
:10081D00E52CD394075003020571E52CD3941050A9
:10082D0003020487E52CD3941A50030202F7E52C3A
:09083D00D39424500312037D2220
:10057100E52C7008752B01752C018059E52CB4010F
:1005810008752B02752C02804CE52CB40208752BE2
:1005910004752C03803FE52CB40308752B08752CDA
:1005A100048032E52CB40408752B10752C058025C8
:1005B100E52CB40508752B20752C068018E52CB4A4
:1005C1000608752B40752C07800BE52CB4070675C2
:0B05D1002B80752C08E52BF4F5902220
:10048700E52CB40808752B01752C098066E52CB49A
:100497000908752B03752C0A8059E52CB40A0875D1
:1004A7002B06752C0B804CE52CB40B08752B0C75A3
:1004B7002C0C803FE52CB40C08752B18752C0D807F
:1004C70032E52CB40D08752B30752C0E8025E52CE4
:1004D700B40E08752B60752C0F8018E52CB40F0827
:1004E700752BC0752C10800BE52CB41006752B806E
:0904F700752C11E52BF4F590229F
:1002F700E52CB41108752B01752C128073E52CB40D
:100307001208752B03752C138066E52CB41308753A
:100317002B07752C148059E52CB41408752B0E7512
:100327002C15804CE52CB41508752B1C752C1680E4
:100337003FE52CB41608752B38752C178032E52C41
:10034700B41708752B70752C188025E52CB4180880
:10035700752BE0752C198018E52CB41908752BC07E
:10036700752C1A800BE52CB41A06752B80752C1B7F
:06037700E52BF4F59022D5
:10037D00E52CB41B08752B01752C1C8073E52CB472
:10038D001C08752B03752C1D8066E52CB41D087596
:10039D002B07752C1E8059E52CB41E08752B0F7577
:1003AD002C1F804CE52CB41F08752B1E752C20803E
:1003BD003FE52CB42008752B3C752C218032E52CA3
:1003CD00B42108752BF0752C228025E52CB422085C
:1003DD00752BE0752C238018E52CB42308752BC0E4
:1003ED00752C24800BE52CB42406752B80E4F52C9C
:0603FD00E52BF4F590224F
:0A0A42003F065B4F666D7D077F6F76
:090A6000EF900A4293F4F5902294
:0308C700013600F7
:050A8100AF36020A601F
:1009DB00AF36120A600536E536D394094003E4F5C9
:0209EB003622B2
:0A0A4C003F065B4F666D7D077F6F6C
:0608CA00012D00012E00CB
:050A8600C2A0C2A12284
:0C0A0B00EF7003D2A022BF0102D2A12292
:10000E00AE90ED900A4C93F4FD120A86530680537F
:0A001E00057FED42068E90020A0BEA
:030AC6008F2E224E
:1007C300AD2EE52D7010ED75F00A84ADF07F0112AA
:1007D300000E752D0122E52DB40113ED75F00A8489
:0E07E30075F00A84ADF0E4FF12000EE4F52D6F
:0107F10022E5
:0308D000013700ED
:050A8B00AF37020AC6AE
:1009B500AF37120AC6740A2537F537D39463400357
:0409C500E4F53722FC
:0A0A56003F065B4F666D7D077F6F62
:0708D30001280002290000CA
:090A6900C2A0C2A1C2A2C2A322D4
:10095C00EF7003D2A022BF0103D2A122BF0203D2A7
:08096C00A222BF0302D2A32264
:10094200AE90ED900A5693F4FD120A695306805355
:0A095200057FED42068E9002095C5D
:050A90008E298F2A22CF
:10050000AF2AAE29E5287011FC7D0A12002EAE0438
:100510007F0312094275280122E528B401197C00E5
:100520007D0A12002E7C007D0A12002EAE047F028E
:1005300012094275280222E528B402197C007D6464
:1005400012002E7C007D0A12002EAE047F011209DB
:100550004275280322E528B403167C037DE81200C7
:100560002E7C007D0A12002EE4FF120942E4F528D9
:010570002268
:0408DA00022F007B6E
:070A7A00AF30AE2F020A901D
:10089600AF30AE2F120A9074E82530F53074033568
:1008A6002FF52FD3E530940FE52F94274006752FAB
:0508B6000075307B22FB
:0300000002026B8E
:0C026B00787FE4F6D8FD7581370202B2FE
:10002E00BC000BBE0029EF8DF084FFADF022E4CCB6
:10003E00F875F008EF2FFFEE33FEEC33FCEE9DEC7F
:10004E00984005FCEE9DFE0FD5F0E9E4CEFD22EDC5
:10005E00F8F5F0EE8420D21CFEADF075F008EF2F0F
:10006E00FFED33FD4007985006D5F0F222C398FD00
:05007E000FD5F0EA229D
:10008300E88FF0A4CC8BF0A42CFCE98EF0A42CFC1C
:100093008AF0EDA42CFCEA8EF0A4CDA8F08BF0A49A
:1000A3002DCC3825F0FDE98FF0A42CCD35F0FCEBF9
:1000B3008EF0A4FEA9F0EB8FF0A4CFC5F02ECD39BE
:0F00C300FEE43CFCEAA42DCE35F0FDE43CFC222B
:1000D20075F008758200EF2FFFEE33FECD33CDCCE5
:1000E20033CCC58233C5829BED9AEC99E582984068
:1000F2000CF582EE9BFEED9AFDEC99FC0FD5F0D645
:10010200E4CEFBE4CDFAE4CCF9A88222B800C1B96E
:100112000059BA002DEC8BF084CFCECDFCE5F0CBAC
:10012200F97818EF2FFFEE33FEED33FDEC33FCEBE5
:1001320033FB10D703994004EB99FB0FD8E5E4F9A0
:10014200FA227818EF2FFFEE33FEED33FDEC33FC8D
:10015200C933C910D7059BE99A4007EC9BFCE99A81
:10016200F90FD8E0E4C9FAE4CCFB2275F010EF2FC6
:10017200FFEE33FEED33FDCC33CCC833C810D707C6
:100182009BEC9AE899400AED9BFDEC9AFCE899F801
:0E0192000FD5F0DAE4CDFBE4CCFAE4C8F92294
:0601A0008A838982E473EA
:10027700020003E493A3F8E493A34003F68001F29A
:1002870008DFF48029E493A3F85407240CC8C33388
:10029700C4540F4420C8834004F456800146F6DF57
:1002A700E4800B01020408102040809008BBE47E24
:1002B700019360BCA3FF543F30E509541FFEE4934C
:1002C700A360010ECF54C025E060A840B8E493A313
:1002D700FAE493A3F8E493A3C8C582C8CAC583CA3E
:1002E700F0A3C8C582C8CAC583CADFE9DEE780BEF6
:0108DE000019
:00000001FF
