:0800030012098B1209F080FBC9
:1009D000E4FDFCC3ED9FEC9E5015E4FBFA0BBB005D
:0F09E000010AEB647D4A70F50DBD00010C80E447
:0109EF0022E5
:040BAD007590FF221E
:03002800B2902271
:0308C300013500FC
:040BB1007590FF221A
:0F0AF2000535E535C394324005B290E4F5352261
:10098B00E4F536E5367003020B1CE536B4010302C1
:10099B000B27E536B40203020BCFE536B403031283
:0309AB000BB52267
:1009F000E5367003020BC9E536B40103020BCCE502
:100A000036B40203020B3DE536B40303120ACE22CC
:0B0B1C007F011201A6120861020BDB32
:030BC900020758C8
:0B0B27007F0A1205DC120B32020BD219
:030BCC00020BB960
:030BCF00020BB165
:0A0B3D00120AF27F0A7E000209D0BE
:040BB5007590FF2216
:100ACE00D2907FF47E011209D0C2907FF47E010293
:020ADE0009D03D
:1005DC008F215389F0438901AF21E4FCFDFEFB7AA6
:1005EC001B79B7F8120083E47BE07A2EF9F812013C
:1005FC000EC3E49FFFE49E74019DE49CE48F8AAFDC
:10060C0021FCFDFEFB7A1B79B7F8120083E47BE03A
:10061C007A2EF9F812010EC3E49FFFE49EFE7401DA
:10062C009DFDE49CFCE4FB7A01F9F812010E8F8C21
:07063C00C28DD2A9D28C226D
:100643008F20C28DC28CE4FCFDFEFB7A1B79B7F8C8
:10065300120083E47BE07A2EF9F812010EC3E49FC3
:10066300FFE49E74019DE49CE48F8AAF20FCFDFEB1
:10067300FB7A1B79B7F8120083E47BE07A2EF9F852
:1006830012010EC3E49FFFE49EFE74019DFDE49CF2
:0F069300FCE4FB7A01F9F812010E8F8CD28C2255
:030BD200D2AF227D
:03000B000207EEFB
:1007EE00C0E0C0F0C083C082C0D075D000C000C0D1
:1007FE0001C002C003C004C005C006C0077F0A12B4
:10080E000643120B8AD007D006D005D004D003D0F1
:10081E0002D001D000D0D0D082D083D0F0D0E03240
:040BB900438701224B
:0B0B3200E4F537E5377003120BD52205
:080B8A00E5377003120BD822BD
:030BD500020BBD53
:030BD800020B010C
:0308C600013800F6
:040BBD007590FF220E
:0F0B01000538E538C394324005B290E4F5382248
:0201A6008F21A7
:1001A800E4F522AF2212082E0522E522C39403406B
:1001B800F2E4F5C8AF21FCFDFEFB7A1B79B7F81213
:1001C8000083E47BE07A2EF9F812010EC3E49FFF66
:1001D800E49EFE74019DFDE49CFCE4FB7A01F9F8C1
:1001E80012010E8FCDAF21E4FCFDFEFB7A1B79B71F
:1001F800F8120083E47BE07A2EF9F812010EC3E4CA
:100208009FFFE49E74019DE49CE48FCCAF21FCFD2C
:10021800FEFB7A1B79B7F8120083E47BE07A2EF9AB
:10022800F812010EC3E49FFFE49EFE74019DFDE4F5
:100238009CFCE4FB7A01F9F812010E8FCBAF21E4A4
:10024800FCFDFEFB7A1B79B7F8120083E47BE07AA9
:100258002EF9F812010EC3E49FFF8FCAC2CFD2ADA8
:02026800D2CAF8
:01026A002271
:0606A2008B218A2289234E
:1006A800E4FFEF75F008A42408F808E6FA08E64A1B
:1006B8006009EFC3940350030F80E7EF64036038C9
:1006C800AA22A923EF75F008A42408F8A62108A6F1
:1006D8000208A601EF75F008A4240BF8A60408A6E2
:1006E80005EF75F008A4240DF8A62608A627EF75CF
:0806F800F008A4240FF8E4F659
:0107000022D6
:030BDB00D2AF2274
:03002B00020403C9
:10040300C0E0C0F0C0D075D000C000C002C004C0BE
:0304130005C0071A
:10041600C2CFE4FFEF75F008A42408F808E6FA084E
:10042600E6AC024C6046EF75F008A4240BF8E6FC37
:1004360008E64C7028EF75F008A4240FF806EF754F
:10044600F008A4240DF8E6FC08E6FD4C601EEF75E6
:10045600F008A4240BF8A60408A605800FEF75F093
:1004660008A4240BF808E616187001160FBF03A49B
:10047600D007D005D004D002D000D0D0D0F0D0E044
:010486003243
:10075800E4F521E52175F008A4240FF8E6D3940008
:100768004031E52175F008A42408F808E6FA08E6FF
:10077800F91201A0E52175F008A4240FF816E52167
:1007880075F008A4240DF8E6FE08E64E7005AF21C2
:0F07980012082E0521E521C3940340B7020BC1BF
:10082E00EF75F008A42408F8760008760008760024
:10083E00EF75F008A4240BF8E4F608F6EF75F0084F
:10084E00A4240DF8E4F608F6EF75F008A4240FF8CA
:03085E00E4F6229B
:040BC1004387012243
:10086100753905E5397003020AA5E539B4010302BA
:100871000A79E539B40203020A8FE539B4030302A8
:100881000916E539B4040302093EE539B40503123A
:0308910007A72294
:100AA500120BAD7BFF7A0079287526017527F4E4D2
:050AB500FDFC0206A299
:100A7900120BC57BFF7A0879ED7526017527F47D80
:060A8900017C000206A240
:100A8F00120B997BFF7A0A79E07526017527F47DA1
:060A9F00017C000206A22A
:10091600120BA37BFF7A08799475260075270AE4E3
:10092600FDFC1206A27BFF7A0A79BA7526017527A5
:08093600F47D017C000206A221
:10093E00120B927BFF7A05790075260075270AE463
:10094E00FDFC1206A27BFF7A0979667526017527D2
:08095E00F47D017C000206A2F9
:1007A7007F14120BE17F1E120BE47F37120BE77BDE
:1007B700FF7A07790175260075270AE4FDFC120602
:1007C700A27BFF7A0B79EA7526017527F47D017CF8
:1007D700001206A27BFF7A0A79107526037527E8AF
:0707E7007D037C000206A265
:0608C900013000012F00C8
:040BC5007590FF2206
:1008ED00E530D394075003020571E530D3941050D1
:1008FD0003020487E530D3941A50030202F7E53062
:09090D00D39424500312037D224F
:10057100E5307008752F017530018059E530B401FF
:1005810008752F02753002804CE530B40208752FD2
:1005910004753003803FE530B40308752F087530CA
:1005A100048032E530B40408752F107530058025BC
:1005B100E530B40508752F207530068018E530B494
:1005C1000608752F40753007800BE530B4070675B6
:0B05D1002F80753008E52FF4F5902214
:10048700E530B40808752F017530098066E530B48A
:100497000908752F0375300A8059E530B40A0875C5
:1004A7002F0675300B804CE530B40B08752F0C7593
:1004B700300C803FE530B40C08752F1875300D806F
:1004C70032E530B40D08752F3075300E8025E530D4
:1004D700B40E08752F6075300F8018E530B40F081B
:1004E700752FC0753010800BE530B41006752F805E
:0904F700753011E52FF4F5902297
:1002F700E530B41108752F017530128073E530B4FD
:100307001208752F037530138066E530B41308752E
:100317002F077530148059E530B41408752F0E7502
:100327003015804CE530B41508752F1C75301680D4
:100337003FE530B41608752F387530178032E53031
:10034700B41708752F707530188025E530B4180874
:10035700752FE07530198018E530B41908752FC06E
:1003670075301A800BE530B41A06752F8075301B6F
:06037700E52FF4F59022D1
:10037D00E530B41B08752F0175301C8073E530B462
:10038D001C08752F0375301D8066E530B41D08758A
:10039D002F0775301E8059E530B41E08752F0F7567
:1003AD00301F804CE530B41F08752F1E753020802E
:1003BD003FE530B42008752F3C7530218032E53093
:1003CD00B42108752FF07530228025E530B4220850
:1003DD00752FE07530238018E530B42308752FC0D4
:1003ED00753024800BE530B42406752F80E4F5308C
:0603FD00E52FF4F590224B
:0A0B47003F065B4F666D7D077F6F70
:090B6F00EF900B4793F4F590227E
:0308CF00013A00EB
:050B9900AF3A020B6FF2
:100AE000AF3A120B6F053AE53AD394094003E4F5A7
:020AF0003A22A8
:0A0B51003F065B4F666D7D077F6F66
:0608D200013100013200BB
:050B9E00C2A0C2A1226B
:0C0B1000EF7003D2A022BF0102D2A1228C
:10000E00AE90ED900B5193F4FD120B9E5306805360
:0A001E00057FED42068E90020B10E4
:030BDE008F322231
:10089400AD32E5317010ED75F00A84ADF07F0112D0
:1008A400000E75310122E531B40113ED75F00A84AF
:0E08B40075F00A84ADF0E4FF12000EE4F53199
:0108C2002213
:0308D800013B00E1
:050BA300AF3B020BDE78
:100ABA00AF3B120BDE740A253BF53BD3946340032C
:040ACA00E4F53B22F2
:0A0B5B003F065B4F666D7D077F6F5C
:0708DB00012C00022D0000BA
:090B7800C2A0C2A1C2A2C2A322C4
:100A4900EF7003D2A022BF0103D2A122BF0203D2B9
:080A5900A222BF0302D2A32276
:100A2F00AE90ED900B5B93F4FD120B785306805351
:0A0A3F00057FED42068E90020A4981
:050BA8008E2D8F2E22AE
:10050000AF2EAE2DE52C7011FC7D0A12002EAE042C
:100510007F03120A2F752C0122E52CB401197C00EF
:100520007D0A12002E7C007D0A12002EAE047F028E
:10053000120A2F752C0222E52CB402197C007D646E
:1005400012002E7C007D0A12002EAE047F01120ADA
:100550002F752C0322E52CB403167C037DE81200D2
:100560002E7C007D0A12002EE4FF120A2FE4F52CE7
:010570002268
:0408E2000233007B62
:070B9200AF34AE33020BA8E3
:10096600AF34AE33120BA874E82534F5347403356E
:1009760033F533D3E534940FE533942740067533C6
:050986000075347B2226
:0A0B65003F065B4F666D7D077F6F52
:0608E600042800000000E0
:090B8100C2A0C2A1C2A2C2A322BB
:100A6100EF7003D2A022BF0103D2A122BF0203D2A1
:080A7100A222BF0302D2A3225E
:0809AE0075F00A84ACF0AD0401
:1009B600AE90ED900B6593F4FD120B8153068053B8
:0A09C600057FED42068E90020A61E3
:030BE1008F282238
:030BE4008F292234
:030BE7008F2A2230
:10070100E52B7017E52875F00A8475F00A84ACF0C2
:10071100AD04E4FF1209B6752B0122E52BB4010BE0
:10072100E5287F011209AE752B0222E52BB4020FD9
:10073100E52975F00A847F021209AE752B0322E5C3
:100741002BB40312E52975F00A84ACF0AD047F03E4
:060751001209B6E4F52BCD
:01075700227F
:030BEA00B297229D
:100A1000052AE52AB43C05E4F52A0529E529B43C74
:0F0A200005E4F5290528E528B41803E4F5282294
:0300000002026B8E
:0C026B00787FE4F6D8FD75813B0202B2FA
:10002E00BC000BBE0029EF8DF084FFADF022E4CCB6
:10003E00F875F008EF2FFFEE33FEEC33FCEE9DEC7F
:10004E00984005FCEE9DFE0FD5F0E9E4CEFD22EDC5
:10005E00F8F5F0EE8420D21CFEADF075F008EF2F0F
:10006E00FFED33FD4007985006D5F0F222C398FD00
:05007E000FD5F0EA229D
:10008300E88FF0A4CC8BF0A42CFCE98EF0A42CFC1C
:100093008AF0EDA42CFCEA8EF0A4CDA8F08BF0A49A
:1000A3002DCC3825F0FDE98FF0A42CCD35F0FCEBF9
:1000B3008EF0A4FEA9F0EB8FF0A4CFC5F02ECD39BE
:0F00C300FEE43CFCEAA42DCE35F0FDE43CFC222B
:1000D20075F008758200EF2FFFEE33FECD33CDCCE5
:1000E20033CCC58233C5829BED9AEC99E582984068
:1000F2000CF582EE9BFEED9AFDEC99FC0FD5F0D645
:10010200E4CEFBE4CDFAE4CCF9A88222B800C1B96E
:100112000059BA002DEC8BF084CFCECDFCE5F0CBAC
:10012200F97818EF2FFFEE33FEED33FDEC33FCEBE5
:1001320033FB10D703994004EB99FB0FD8E5E4F9A0
:10014200FA227818EF2FFFEE33FEED33FDEC33FC8D
:10015200C933C910D7059BE99A4007EC9BFCE99A81
:10016200F90FD8E0E4C9FAE4CCFB2275F010EF2FC6
:10017200FFEE33FEED33FDCC33CCC833C810D707C6
:100182009BEC9AE899400AED9BFDEC9AFCE899F801
:0E0192000FD5F0DAE4CDFBE4CCFAE4C8F92294
:0601A0008A838982E473EA
:10027700020003E493A3F8E493A34003F68001F29A
:1002870008DFF48029E493A3F85407240CC8C33388
:10029700C4540F4420C8834004F456800146F6DF57
:1002A700E4800B01020408102040809008C3E47E1C
:1002B700019360BCA3FF543F30E509541FFEE4934C
:1002C700A360010ECF54C025E060A840B8E493A313
:1002D700FAE493A3F8E493A3C8C582C8CAC583CA3E
:1002E700F0A3C8C582C8CAC583CADFE9DEE780BEF6
:0108EC00000B
:00000001FF
