:080003001209961209D980FBD5
:1009B900E4FDFCC3ED9FEC9E5015E4FBFA0BBB0074
:0F09C900010AEB647D4A70F50DBD00010C80E45E
:0109D80022FC
:08096E00012A01012B00C182E6
:070AE1007DFFAF2A020A337A
:0D0AA100B202A2029201AD2BAF2A02015158
:0B097600012101012200012300C183C8
:070AE8007DFFAF21020A337C
:10000E000523E523C394324010B203A2039201AD3F
:0A001E0022AF21120151E4F5232264
:100A3300EF70038D8022BF01038D9022BF02038DCF
:080A4300A022BF03028DB022C6
:10015100EF7045ED7005A201928022BD0105A2015B
:10016100928122BD0205A201928222BD0305A20154
:10017100928322BD0405A201928422BD0505A2013C
:10018100928522BD0605A201928622ED64076003D5
:1001910002026EA201928722EF64017045ED7005A3
:1001A100A201929022BD0105A201929122BD0205F8
:1001B100A201929222BD0305A201929322BD0405E0
:1001C100A201929422BD0505A201929522BD0605C8
:1001D100A201929622ED6407600302026EA20192CF
:1001E1009722EF64027042ED7005A20192A022BD38
:1001F1000105A20192A122BD0205A20192A222BD86
:100201000305A20192A322BD0405A20192A422BD6D
:100211000505A20192A522BD0605A20192A622ED25
:1002210064077049A20192A722EF6403703FED7049
:1002310005A20192B022BD0105A20192B122BD0227
:1002410005A20192B222BD0305A20192B322BD040F
:1002510005A20192B422BD0505A20192B522BD06F7
:0E02610005A20192B622BD0704A20192B722A7
:10099600E4F52CE52C7003020AAEE52CB401030243
:1009A6000AB9E52CB40203020B08E52CB4030312C2
:0309B6000B0B2206
:1009D900E52C7003020028E52CB40103020B05E5A0
:1009E9002CB40203020ACFE52CB403031209F9223D
:0B0AAE007F0112038D120A8E020B174D
:0300280002088348
:0B0AB9007F0A12075E120AC4020B0E37
:030B0500020AFDE4
:030B0800020AE8F6
:0A0ACF0012000E7F0A7E000209B932
:030B0B00020AE8F3
:1009F900C201E4FD7F011201517FF47E011209B9A0
:100A0900D201E4FD7F011201517FF47E010209B98F
:10075E008F195389F0438901AF19E4FCFDFEFB7A32
:10076E001B79B7F812002EE47BE07A2EF9F812000E
:10077E00B9C3E49FFFE49E74019DE49CE48F8AAFAD
:10078E0019FCFDFEFB7A1B79B7F812002EE47BE014
:10079E007A2EF9F81200B9C3E49FFFE49EFE7401AD
:1007AE009DFDE49CFCE4FB7A01F9F81200B98F8CF4
:0707BE00C28DD2A9D28C22EA
:1007C5008F18C28DC28CE4FCFDFEFB7A1B79B7F84D
:1007D50012002EE47BE07A2EF9F81200B9C3E49FEB
:1007E500FFE49E74019DE49CE48F8AAF18FCFDFE36
:1007F500FB7A1B79B7F812002EE47BE07A2EF9F824
:100805001200B9C3E49FFFE49EFE74019DFDE49CC4
:0F081500FCE4FB7A01F9F81200B98F8CD28C2227
:030B0E00D2AF2241
:03000B000208D216
:1008D200C0E0C0F0C083C082C0D075D000C000C0EC
:1008E20001C002C003C004C005C006C0077F0A12CF
:1008F20007C5120AD9D007D006D005D004D003D03C
:1009020002D001D000D0D0D082D083D0F0D0E0325B
:040AFD004387012208
:0B0AC400E4F52DE52D7003120B11224C
:080AD900E52D7003120B14223D
:030B1100020AEFE6
:030B1400020A19B9
:0B098100012401012500012600C184B3
:070AEF007DFFAF24020A4B5A
:100A19000526E526C394324010B204A2049200AD23
:0A0A290025AF2412026FE4F5262227
:100A4B00EF70038D8022BF01038D9022BF02038DB7
:080A5B00A022BF03028DB022AE
:10026F00EF7045ED7005A200928022BD0105A2003E
:10027F00928122BD0205A200928222BD0305A20037
:10028F00928322BD0405A200928422BD0505A2001F
:10029F00928522BD0605A200928622ED64076003B7
:1002AF0002038CA200928722EF64017045ED700566
:1002BF00A200929022BD0105A200929122BD0205DB
:1002CF00A200929222BD0305A200929322BD0405C3
:1002DF00A200929422BD0505A200929522BD0605AB
:1002EF00A200929622ED6407600302038CA2009293
:1002FF009722EF64027042ED7005A20092A022BD1A
:10030F000105A20092A122BD0205A20092A222BD68
:10031F000305A20092A322BD0405A20092A422BD50
:10032F000505A20092A522BD0605A20092A622ED08
:10033F0064077049A20092A722EF6403703FED702B
:10034F0005A20092B022BD0105A20092B122BD020A
:10035F0005A20092B222BD0305A20092B322BD04F2
:10036F0005A20092B422BD0505A20092B522BD06DA
:0E037F0005A20092B622BD0704A20092B7228A
:02038D008F19C6
:10038F00E4F51AAF1A120912051AE51AC3940240BE
:10039F00F2E4F5C8AF19FCFDFEFB7A1B79B7F81232
:1003AF00002EE47BE07A2EF9F81200B9C3E49FFF28
:1003BF00E49EFE74019DFDE49CFCE4FB7A01F9F8D8
:1003CF001200B98FCDAF19E4FCFDFEFB7A1B79B794
:1003DF00F812002EE47BE07A2EF9F81200B9C3E48C
:1003EF009FFFE49E74019DE49CE48FCCAF19FCFD4C
:1003FF00FEFB7A1B79B7F812002EE47BE07A2EF918
:10040F00F81200B9C3E49FFFE49EFE74019DFDE462
:10041F009CFCE4FB7A01F9F81200B98FCBAF19E419
:10042F00FCFDFEFB7A1B79B7F812002EE47BE07A15
:10043F002EF9F81200B9C3E49FFF8FCAC2CFD2AD15
:02044F00D2CA0F
:010451002288
:060824008B198A1A891BE2
:10082A00E4FFEF75F008A42408F808E6FA08E64A97
:10083A006009EFC3940250030F80E7EF6402603847
:10084A00AA1AA91BEF75F008A42408F8A61908A685
:10085A000208A601EF75F008A4240BF8A60408A65E
:10086A0005EF75F008A4240DF8A61E08A61FEF755B
:08087A00F008A4240FF8E4F6D5
:010882002253
:030B1700D2AF2238
:03002B000205F0DB
:1005F000C0E0C0F0C0D075D000C000C002C004C0D0
:0306000005C0072B
:10060300C2CFE4FFEF75F008A42408F808E6FA085F
:10061300E6AC024C6046EF75F008A4240BF8E6FC48
:1006230008E64C7028EF75F008A4240FF806EF7560
:10063300F008A4240DF8E6FC08E6FD4C601EEF75F7
:10064300F008A4240BF8A60408A605800FEF75F0A4
:1006530008A4240BF808E616187001160FBF02A4AD
:10066300D007D005D004D002D000D0D0D0F0D0E055
:010673003254
:10088300E4F519E51975F008A4240FF8E6D39400EC
:100893004031E51975F008A42408F808E6FA08E6DB
:1008A300F912014BE51975F008A4240FF816E519A0
:1008B30075F008A4240DF8E6FE08E64E7005AF199E
:0F08C3001209120519E519C3940240B7020B017F
:10091200EF75F008A42408F876000876000876003F
:10092200EF75F008A4240BF8E4F608F6EF75F0086A
:10093200A4240DF8E4F608F6EF75F008A4240FF8E5
:03094200E4F622B6
:040B01004387012203
:100A8E00752E01E52E7003020A79E52EB4010312CC
:030A9E000A6322C6
:100A7900120AE17BFF7A0A79A1751E01751FF4E458
:050A8900FDFC02082441
:100A6300120AF67BFF7A097945751E01751FF47D1D
:060A7300017C00020824D2
:09098C00012701012900012800E6
:070AF6007DFFAF27020A3368
:10094500E529D3940750030206F0E529D394105006
:1009550003020674E529D3941A50030204DEE5293F
:09096500D394245003120567220B
:1006F000E52970087528017529018059E529B4019B
:1007000008752802752902804CE529B4020875286D
:1007100004752903803FE529B40308752808752965
:10072000048032E529B40408752810752905802550
:10073000E529B405087528207529068018E529B42F
:100740000608752840752907800BE529B40706754A
:0E0750002880752908E528F4FDAF27020A333A
:10067400E529B408087528017529098066E529B4B7
:10068400090875280375290A8059E529B40A0875EB
:10069400280675290B804CE529B40B0875280C75C0
:1006A400290C803FE529B40C0875281875290D809C
:1006B40032E529B40D0875283075290E8025E52901
:1006C400B40E0875286075290F8018E529B40F0841
:1006D4007528C0752910800BE529B410067528808B
:0C06E400752911E528F4FDAF27020A3348
:1004DE00E529B411087528017529128073E529B430
:1004EE0012087528037529138066E529B41308755B
:1004FE0028077529148059E529B4140875280E7536
:10050E002915804CE529B4150875281C7529168007
:10051E003FE529B416087528387529178032E52964
:10052E00B417087528707529188025E529B41808A0
:10053E007528E07529198018E529B419087528C0A1
:10054E0075291A800BE529B41A0675288075291BA2
:09055E00E528F4FDAF27020A3381
:10056700E529B41B0875280175291C8073E529B492
:100577001C0875280375291D8066E529B41D0875B3
:10058700280775291E8059E529B41E0875280F7597
:10059700291F804CE529B41F0875281E752920805E
:1005A7003FE529B4200875283C7529218032E529C3
:1005B700B421087528F07529228025E529B4220879
:1005C7007528E07529238018E529B423087528C004
:1005D700752924800BE529B42406752880E4F529BC
:0905E700E528F4FDAF27020A33F8
:03000000020452A5
:0C045200787FE4F6D8FD75812E02049935
:10002E00E88FF0A4CC8BF0A42CFCE98EF0A42CFC71
:10003E008AF0EDA42CFCEA8EF0A4CDA8F08BF0A4EF
:10004E002DCC3825F0FDE98FF0A42CCD35F0FCEB4E
:10005E008EF0A4FEA9F0EB8FF0A4CFC5F02ECD3913
:0F006E00FEE43CFCEAA42DCE35F0FDE43CFC2280
:10007D0075F008758200EF2FFFEE33FECD33CDCC3A
:10008D0033CCC58233C5829BED9AEC99E5829840BD
:10009D000CF582EE9BFEED9AFDEC99FC0FD5F0D69A
:1000AD00E4CEFBE4CDFAE4CCF9A88222B800C1B9C4
:1000BD000059BA002DEC8BF084CFCECDFCE5F0CB02
:1000CD00F97818EF2FFFEE33FEED33FDEC33FCEB3B
:1000DD0033FB10D703994004EB99FB0FD8E5E4F9F6
:1000ED00FA227818EF2FFFEE33FEED33FDEC33FCE3
:1000FD00C933C910D7059BE99A4007EC9BFCE99AD7
:10010D00F90FD8E0E4C9FAE4CCFB2275F010EF2F1B
:10011D00FFEE33FEED33FDCC33CCC833C810D7071B
:10012D009BEC9AE899400AED9BFDEC9AFCE899F856
:0E013D000FD5F0DAE4CDFBE4CCFAE4C8F922E9
:06014B008A838982E4733F
:10045E00020003E493A3F8E493A34003F68001F2B1
:10046E0008DFF48029E493A3F85407240CC8C3339F
:10047E00C4540F4420C8834004F456800146F6DF6E
:10048E00E4800B010204081020408090096EE47E87
:10049E00019360BCA3FF543F30E509541FFEE49363
:1004AE00A360010ECF54C025E060A840B8E493A32A
:1004BE00FAE493A3F8E493A3C8C582C8CAC583CA55
:1004CE00F0A3C8C582C8CAC583CADFE9DEE780BE0D
:010995000061
:00000001FF
