:1003DC007F011201517F141205097F1E12050C7F3B
:1003EC003712050F7BFF7A03798575250075260A70
:1003FC00E4FDFC1203267BFF7A0579127525017545
:10040C0026F47D017C001203267BFF7A0479B275F9
:10041C0025037526E87D037C0012032612050612BF
:04042C00043080FB1D
:020151008F20FD
:10015300E4F521AF2112047F0521E521C394034077
:10016300F2E4F5C8AF20FCFDFEFB7AC079A8F812D3
:10017300002EE47BE07A2EF9F81200B9C3E49FFF66
:10018300E49EFE74019DFDE49CFCE4FB7A01F9F816
:100193001200B98FCDAF20E4FCFDFEFB7AC079A835
:1001A300F812002EE47BE07A2EF9F81200B9C3E4CA
:1001B3009FFFE49E74019DE49CE48FCCAF20FCFD83
:1001C300FEFB7AC079A8F812002EE47BE07A2EF9C0
:1001D300F81200B9C3E49FFFE49EFE74019DFDE4A1
:1001E3009CFCE4FB7A01F9F81200B98FCBAF20E451
:1001F300FCFDFEFB7AC079A8F812002EE47BE07ABE
:100203002EF9F81200B9C3E49FFF8FCAC2CFD2AD53
:02021300D2CA4D
:0102150022C6
:060326008B208A218922D0
:10032C00E4FFEF75F008A42408F808E6FA08E64A9A
:10033C006009EFC3940350030F80E7EF6403603848
:10034C00AA21A922EF75F008A42408F8A62008A673
:10035C000208A601EF75F008A4240BF8A60408A661
:10036C0005EF75F008A4240DF8A62508A626EF7550
:08037C00F008A4240FF8E4F6D8
:010384002256
:03050600D2AF224F
:03002B000202A22C
:1002A200C0E0C0F0C0D075D000C000C002C004C021
:0302B20005C0077D
:1002B500C2CFE4FFEF75F008A42408F808E6FA08B1
:1002C500E6AC024C6046EF75F008A4240BF8E6FC9A
:1002D50008E64C7028EF75F008A4240FF806EF75B2
:1002E500F008A4240DF8E6FC08E6FD4C601EEF7549
:1002F500F008A4240BF8A60408A605800FEF75F0F6
:1003050008A4240BF808E616187001160FBF03A4FD
:10031500D007D005D004D002D000D0D0D0F0D0E0A6
:0103250032A5
:10043000E4F520E52075F008A4240FF8E6D3940035
:100440004031E52075F008A42408F808E6FA08E62B
:10045000F912014BE52075F008A4240FF816E520E9
:1004600075F008A4240DF8E6FE08E64E7005AF20EE
:0F04700012047F0520E520C3940340B702002546
:10047F00EF75F008A42408F87600087600087600D7
:10048F00EF75F008A4240BF8E4F608F6EF75F00802
:10049F00A4240DF8E4F608F6EF75F008A4240FF87D
:0304AF00E4F6224E
:0400250043870122EA
:0A04EC003F065B4F666D7D077F6FD2
:0604FF00042700000000CC
:0904F600C2A0C2A1C2A2C2A3224D
:1004D400EF7003D2A022BF0103D2A122BF0203D234
:0804E400A222BF0302D2A322F1
:0800030075F00A84ACF0AD04B5
:10000B00AE90ED9004EC93F4FD1204F6530680537E
:0A001B00057FED42068E900204D42A
:030509008F272217
:03050C008F282213
:03050F008F29220F
:10038500E52A7017E52775F00A8475F00A84ACF044
:10039500AD04E4FF12000B752A0122E52AB4010B16
:1003A500E5277F01120003752A0222E52AB4020F10
:1003B500E52875F00A847F02120003752A0322E5F9
:1003C5002AB40312E52875F00A84ACF0AD047F0366
:0603D50012000BE4F52A02
:0103DB0022FF
:03051200B297227B
:1004B2000529E529B43C05E4F5290528E528B43CDD
:1004C20005E4F5280527E527B41803E4F52785296F
:0204D200B02256
:03000000020216E3
:0C021600787FE4F6D8FD75812A02025DB5
:10002E00E88FF0A4CC8BF0A42CFCE98EF0A42CFC71
:10003E008AF0EDA42CFCEA8EF0A4CDA8F08BF0A4EF
:10004E002DCC3825F0FDE98FF0A42CCD35F0FCEB4E
:10005E008EF0A4FEA9F0EB8FF0A4CFC5F02ECD3913
:0F006E00FEE43CFCEAA42DCE35F0FDE43CFC2280
:10007D0075F008758200EF2FFFEE33FECD33CDCC3A
:10008D0033CCC58233C5829BED9AEC99E5829840BD
:10009D000CF582EE9BFEED9AFDEC99FC0FD5F0D69A
:1000AD00E4CEFBE4CDFAE4CCF9A88222B800C1B9C4
:1000BD000059BA002DEC8BF084CFCECDFCE5F0CB02
:1000CD00F97818EF2FFFEE33FEED33FDEC33FCEB3B
:1000DD0033FB10D703994004EB99FB0FD8E5E4F9F6
:1000ED00FA227818EF2FFFEE33FEED33FDEC33FCE3
:1000FD00C933C910D7059BE99A4007EC9BFCE99AD7
:10010D00F90FD8E0E4C9FAE4CCFB2275F010EF2F1B
:10011D00FFEE33FEED33FDCC33CCC833C810D7071B
:10012D009BEC9AE899400AED9BFDEC9AFCE899F856
:0E013D000FD5F0DAE4CDFBE4CCFAE4C8F922E9
:06014B008A838982E4733F
:100222000203DCE493A3F8E493A34003F68001F213
:1002320008DFF48029E493A3F85407240CC8C333DD
:10024200C4540F4420C8834004F456800146F6DFAC
:10025200E4800B01020408102040809004FFE47E39
:10026200019360BCA3FF543F30E509541FFEE493A1
:10027200A360010ECF54C025E060A840B8E493A368
:10028200FAE493A3F8E493A3C8C582C8CAC583CA93
:10029200F0A3C8C582C8CAC583CADFE9DEE780BE4B
:0105050000F5
:00000001FF
