:0703F200755001E4F54F22F4
:1003BA00AD4FAF501203DE054FD3E54F9409748059
:0803CA0094804003E4F54F228A
:100398007F011201511203F27BFF7A0379BA754D7E
:1003A80001754EF4E4FDFC1202A91203F912030CC4
:0203B80080FBC8
:020151008F48D5
:10015300E4F549C3E5499408748094805009AF4994
:10016300120365054980ECE4F5C8AF48FCFDFEFBCE
:100173007A1B79B7F812002EE47BE07A2EF9F81295
:1001830000B9C3E49FFFE49EFE74019DFDE49CFC63
:10019300E4FB7A01F9F81200B98FCDAF48E4FCFD16
:1001A300FEFB7A1B79B7F812002EE47BE07A2EF976
:1001B300F81200B9C3E49FFFE49E74019DE49CE43C
:1001C3008FCCAF48FCFDFEFB7A1B79B7F812002EEB
:1001D300E47BE07A2EF9F81200B9C3E49FFFE49EB2
:1001E300FE74019DFDE49CFCE4FB7A01F9F8120026
:1001F300B98FCBAF48E4FCFDFEFB7A1B79B7F8124D
:10020300002EE47BE07A2EF9F81200B9C3E49FFFD5
:080213008FCAC2CFD2ADD2CADE
:01021B0022C0
:0602A9008B488A49894AD6
:1002AF00E4FFEF75F008A42408F808E6FA08E64A18
:1002BF00600DEFC394087480948050030F80E3EFB8
:1002CF0064086038AA49A94AEF75F008A42408F811
:1002DF00A64808A60208A601EF75F008A4240BF89B
:1002EF00A60408A605EF75F008A4240DF8A64D087E
:0C02FF00A64EEF75F008A4240FF8E4F6FA
:01030B0022CF
:0303F900D2AF225E
:03002B0002021CB2
:10021C00C0E0C0F0C0D075D000C000C002C004C0A7
:03022C0005C00703
:10022F00C2CFE4FFEFC3940874809480505BEF75E6
:10023F00F008A42408F808E6FA08E6AC024C604679
:10024F00EF75F008A4240BF8E6FC08E64C7028EFD5
:10025F0075F008A4240FF806EF75F008A4240DF824
:10026F00E6FC08E6FD4C601EEF75F008A4240BF8C1
:10027F00A60408A605800FEF75F008A4240BF80854
:09028F00E616187001160F809BA1
:10029800D007D005D004D002D000D0D0D0F0D0E024
:0102A8003223
:10030C00E4F548C3E5489408748094805048E54867
:10031C0075F008A4240FF8E6D39400748094804000
:10032C0031E54875F008A42408F808E6FA08E6F95F
:10033C0012014BE54875F008A4240FF816E5487532
:10034C00F008A4240DF8E6FE08E64E7005AF48123E
:09035C000365054880AD0200278D
:10036500EF75F008A42408F87600087600087600F2
:10037500EF75F008A4240BF8E4F608F6EF75F0081D
:10038500A4240DF8E4F608F6EF75F008A4240FF898
:03039500E4F62269
:0400270043870122E8
:10000300EFFB7A0070038D8022EB64014A70038D4D
:100013009022EB64024A70038DA022EB64034A70C2
:04002300028DB02278
:0A03E8003F065B4F666D7D077F6FD7
:0A03DE00ED9003E893F4FD02000324
:030000000203D226
:0C03D200787FE4F6D8FD75815002039896
:10002E00E88FF0A4CC8BF0A42CFCE98EF0A42CFC71
:10003E008AF0EDA42CFCEA8EF0A4CDA8F08BF0A4EF
:10004E002DCC3825F0FDE98FF0A42CCD35F0FCEB4E
:10005E008EF0A4FEA9F0EB8FF0A4CFC5F02ECD3913
:0F006E00FEE43CFCEAA42DCE35F0FDE43CFC2280
:10007D0075F008758200EF2FFFEE33FECD33CDCC3A
:10008D0033CCC58233C5829BED9AEC99E5829840BD
:10009D000CF582EE9BFEED9AFDEC99FC0FD5F0D69A
:1000AD00E4CEFBE4CDFAE4CCF9A88222B800C1B9C4
:1000BD000059BA002DEC8BF084CFCECDFCE5F0CB02
:1000CD00F97818EF2FFFEE33FEED33FDEC33FCEB3B
:1000DD0033FB10D703994004EB99FB0FD8E5E4F9F6
:1000ED00FA227818EF2FFFEE33FEED33FDEC33FCE3
:1000FD00C933C910D7059BE99A4007EC9BFCE99AD7
:10010D00F90FD8E0E4C9FAE4CCFB2275F010EF2F1B
:10011D00FFEE33FEED33FDCC33CCC833C810D7071B
:10012D009BEC9AE899400AED9BFDEC9AFCE899F856
:0E013D000FD5F0DAE4CDFBE4CCFAE4C8F922E9
:06014B008A838982E4733F
:00000001FF
