:1003F200426F6E6A6F757220746F7574206C65201F
:100402006D6F6E64650A004269656E76656E75652C
:0F041200207375722052656164794465760A0023
:100461007F807E251200037BFF7A0379F21204411B
:090471007BFF7A047909020441C1
:010495002244
:100421007F011201AB1204617BFF7A047995E4F537
:100431001DF51EFDFC12030312049212036680FBDC
:0201AB008F18AB
:1001AD00E4F519C3E5199402748094805009AF19D0
:1001BD001203BF051980ECE4F5C8AF18FCFDFEFB7A
:1001CD007A1B79B7F812005BE47BE07A2EF9F8120E
:1001DD0000E6C3E49FFFE49EFE74019DFDE49CFCDC
:1001ED00E4FB7A01F9F81200E68FCDAF18E4FCFDBF
:1001FD00FEFB7A1B79B7F812005BE47BE07A2EF9EF
:10020D00F81200E6C3E49FFFE49E74019DE49CE4B4
:10021D008FCCAF18FCFDFEFB7A1B79B7F812005B93
:10022D00E47BE07A2EF9F81200E6C3E49FFFE49E2A
:10023D00FE74019DFDE49CFCE4FB7A01F9F81200CB
:10024D00E68FCBAF18E4FCFDFEFB7A1B79B7F812F5
:10025D00005BE47BE07A2EF9F81200E6C3E49FFF21
:08026D008FCAC2CFD2ADD2CA84
:010275002266
:060303008B188A19891A0B
:10030900E4FFEF75F008A42408F808E6FA08E64ABD
:10031900600DEFC394027480948050030F80E3EF63
:1003290064026038AA19A91AEF75F008A42408F81C
:10033900A61808A60208A601EF75F008A4240BF870
:10034900A60408A605EF75F008A4240DF8A61D0853
:0C035900A61EEF75F008A4240FF8E4F6CF
:010365002275
:03049200D2AF22C4
:03002B0002027658
:10027600C0E0C0F0C0D075D000C000C002C004C04D
:0302860005C007A9
:10028900C2CFE4FFEFC3940274809480505BEF7592
:10029900F008A42408F808E6FA08E6AC024C60461F
:1002A900EF75F008A4240BF8E6FC08E64C7028EF7B
:1002B90075F008A4240FF806EF75F008A4240DF8CA
:1002C900E6FC08E6FD4C601EEF75F008A4240BF867
:1002D900A60408A605800FEF75F008A4240BF808FA
:0902E900E616187001160F809B47
:1002F200D007D005D004D002D000D0D0D0F0D0E0CA
:0103020032C8
:10036600E4F518C3E5189402748094805048E518A3
:1003760075F008A4240FF8E6D394007480948040A6
:1003860031E51875F008A42408F808E6FA08E6F935
:10039600120178E51875F008A4240FF816E518750B
:1003A600F008A4240DF8E6FE08E64E7005AF181214
:0903B60003BF051880AD02048E9E
:1003BF00EF75F008A42408F8760008760008760098
:1003CF00EF75F008A4240BF8E4F608F6EF75F008C3
:1003DF00A4240DF8E4F608F6EF75F008A4240FF83E
:0303EF00E4F6220F
:04048E00438701227D
:100003004389207C2E7DE012017EA804A905AA065F
:10001300AB077F007E707D997C141200E6EFF40439
:08002300F58D759850D28E2274
:080486008F993099FDC2992203
:060441008B188A19891ACC
:10044700E4FEAB18AA19A91A8E8275830012002E32
:09045700FF60061204860E80E924
:010460002279
:0300000002047A7D
:0C047A00787FE4F6D8FD75811E02042195
:10002E00BB010CE58229F582E5833AF583E0225087
:10003E0006E92582F8E622BBFE06E92582F8E222D1
:0D004E00E58229F582E5833AF583E49322EB
:10005B00E88FF0A4CC8BF0A42CFCE98EF0A42CFC44
:10006B008AF0EDA42CFCEA8EF0A4CDA8F08BF0A4C2
:10007B002DCC3825F0FDE98FF0A42CCD35F0FCEB21
:10008B008EF0A4FEA9F0EB8FF0A4CFC5F02ECD39E6
:0F009B00FEE43CFCEAA42DCE35F0FDE43CFC2253
:1000AA0075F008758200EF2FFFEE33FECD33CDCC0D
:1000BA0033CCC58233C5829BED9AEC99E582984090
:1000CA000CF582EE9BFEED9AFDEC99FC0FD5F0D66D
:1000DA00E4CEFBE4CDFAE4CCF9A88222B800C1B997
:1000EA000059BA002DEC8BF084CFCECDFCE5F0CBD5
:1000FA00F97818EF2FFFEE33FEED33FDEC33FCEB0E
:10010A0033FB10D703994004EB99FB0FD8E5E4F9C8
:10011A00FA227818EF2FFFEE33FEED33FDEC33FCB5
:10012A00C933C910D7059BE99A4007EC9BFCE99AA9
:10013A00F90FD8E0E4C9FAE4CCFB2275F010EF2FEE
:10014A00FFEE33FEED33FDCC33CCC833C810D707EE
:10015A009BEC9AE899400AED9BFDEC9AFCE899F829
:0E016A000FD5F0DAE4CDFBE4CCFAE4C8F922BC
:060178008A838982E47312
:10017E00EC8EF0A4CCC5F0CCCDF8EFA4CEC5F02D0E
:10018E00FDE43CFCE8A42EC8C5F03DFDE43CFCEFCC
:0D019E00A4FFE5F028FEE43DFDE43CFC225A
:00000001FF
