:07042E007F807E250203FA26
:0C000300120440EF6006120010120439D5
:01000F0022CE
:100392007F0112017E12042E7BFF7A047925751DDE
:1003A20000751E64E4FDFC1202D67BFF7A0079031D
:1003B200751D00751E647D017C001202D612043D7B
:0503C20012033980FB6D
:02017E008F18D8
:10018000E4F519C3E5199402748094805009AF19FD
:100190001203C7051980ECE4F5C8AF18FCFDFEFB9F
:1001A0007A1B79B7F812002EE47BE07A2EF9F81268
:1001B00000B9C3E49FFFE49EFE74019DFDE49CFC36
:1001C000E4FB7A01F9F81200B98FCDAF18E4FCFD19
:1001D000FEFB7A1B79B7F812002EE47BE07A2EF949
:1001E000F81200B9C3E49FFFE49E74019DE49CE40F
:1001F0008FCCAF18FCFDFEFB7A1B79B7F812002EEE
:10020000E47BE07A2EF9F81200B9C3E49FFFE49E84
:10021000FE74019DFDE49CFCE4FB7A01F9F81200F8
:10022000B98FCBAF18E4FCFDFEFB7A1B79B7F8124F
:10023000002EE47BE07A2EF9F81200B9C3E49FFFA8
:080240008FCAC2CFD2ADD2CAB1
:010248002293
:0602D6008B188A19891A39
:1002DC00E4FFEF75F008A42408F808E6FA08E64AEB
:1002EC00600DEFC394027480948050030F80E3EF91
:1002FC0064026038AA19A91AEF75F008A42408F84A
:10030C00A61808A60208A601EF75F008A4240BF89D
:10031C00A60408A605EF75F008A4240DF8A61D0880
:0C032C00A61EEF75F008A4240FF8E4F6FC
:0103380022A2
:03043D00D2AF2219
:03002B0002024985
:10024900C0E0C0F0C0D075D000C000C002C004C07A
:0302590005C007D6
:10025C00C2CFE4FFEFC3940274809480505BEF75BF
:10026C00F008A42408F808E6FA08E6AC024C60464C
:10027C00EF75F008A4240BF8E6FC08E64C7028EFA8
:10028C0075F008A4240FF806EF75F008A4240DF8F7
:10029C00E6FC08E6FD4C601EEF75F008A4240BF894
:1002AC00A60408A605800FEF75F008A4240BF80827
:0902BC00E616187001160F809B74
:1002C500D007D005D004D002D000D0D0D0F0D0E0F7
:0102D50032F6
:10033900E4F518C3E5189402748094805048E518D0
:1003490075F008A4240FF8E6D394007480948040D3
:1003590031E51875F008A42408F808E6FA08E6F962
:1003690012014BE51875F008A4240FF816E5187565
:10037900F008A4240DF8E6FE08E64E7005AF181241
:0903890003C7051880AD0204351C
:1003C700EF75F008A42408F8760008760008760090
:1003D700EF75F008A4240BF8E4F608F6EF75F008BB
:1003E700A4240DF8E4F608F6EF75F008A4240FF836
:0303F700E4F62207
:0404350043870122D6
:1003FA004389207C2E7DE0120151A804A905AA0692
:10040A00AB077F007E707D997C141200B9EFF4046B
:0B041A00F58D759850D28EE4F51F227E
:0D001000BF0A027F0D8F993099FDC2992221
:0904250030980585991FC2982248
:03044000AF1F22C9
:04043900E4F51F22A5
:0300000002001DDE
:0C001D00787FE4F6D8FD75811F02039285
:10002E00E88FF0A4CC8BF0A42CFCE98EF0A42CFC71
:10003E008AF0EDA42CFCEA8EF0A4CDA8F08BF0A4EF
:10004E002DCC3825F0FDE98FF0A42CCD35F0FCEB4E
:10005E008EF0A4FEA9F0EB8FF0A4CFC5F02ECD3913
:0F006E00FEE43CFCEAA42DCE35F0FDE43CFC2280
:10007D0075F008758200EF2FFFEE33FECD33CDCC3A
:10008D0033CCC58233C5829BED9AEC99E5829840BD
:10009D000CF582EE9BFEED9AFDEC99FC0FD5F0D69A
:1000AD00E4CEFBE4CDFAE4CCF9A88222B800C1B9C4
:1000BD000059BA002DEC8BF084CFCECDFCE5F0CB02
:1000CD00F97818EF2FFFEE33FEED33FDEC33FCEB3B
:1000DD0033FB10D703994004EB99FB0FD8E5E4F9F6
:1000ED00FA227818EF2FFFEE33FEED33FDEC33FCE3
:1000FD00C933C910D7059BE99A4007EC9BFCE99AD7
:10010D00F90FD8E0E4C9FAE4CCFB2275F010EF2F1B
:10011D00FFEE33FEED33FDCC33CCC833C810D7071B
:10012D009BEC9AE899400AED9BFDEC9AFCE899F856
:0E013D000FD5F0DAE4CDFBE4CCFAE4C8F922E9
:06014B008A838982E4733F
:10015100EC8EF0A4CCC5F0CCCDF8EFA4CEC5F02D3B
:10016100FDE43CFCE8A42EC8C5F03DFDE43CFCEFF9
:0D017100A4FFE5F028FEE43DFDE43CFC2287
:00000001FF
