:0800030012074912078C80FB73
:10076C00E4FDFCC3ED9FEC9E5015E4FBFA0BBB00C3
:0F077C00010AEB647D4A70F50DBD00010C80E4AD
:01078B00224B
:0807CC00012701012800C18290
:070895007DFFAF27020805FB
:0D084A00B202A2029201AD28AF27020151B7
:0B07D400012101012200012300C1836C
:07089C007DFFAF21020805FA
:10000E000523E523C394324010B203A2039201AD3F
:0A001E0022AF21120151E4F5232264
:10080500EF70038D8022BF01038D9022BF02038DFF
:08081500A022BF03028DB022F6
:10015100EF7045ED7005A201928022BD0105A2015B
:10016100928122BD0205A201928222BD0305A20154
:10017100928322BD0405A201928422BD0505A2013C
:10018100928522BD0605A201928622ED64076003D5
:1001910002026EA201928722EF64017045ED7005A3
:1001A100A201929022BD0105A201929122BD0205F8
:1001B100A201929222BD0305A201929322BD0405E0
:1001C100A201929422BD0505A201929522BD0605C8
:1001D100A201929622ED6407600302026EA20192CF
:1001E1009722EF64027042ED7005A20192A022BD38
:1001F1000105A20192A122BD0205A20192A222BD86
:100201000305A20192A322BD0405A20192A422BD6D
:100211000505A20192A522BD0605A20192A622ED25
:1002210064077049A20192A722EF6403703FED7049
:1002310005A20192B022BD0105A20192B122BD0227
:1002410005A20192B222BD0305A20192B322BD040F
:1002510005A20192B422BD0505A20192B522BD06F7
:0E02610005A20192B622BD0704A20192B722A7
:10074900E4F529E5297003020857E529B4010302F4
:100759000862E529B402030208B5E529B4030312C6
:0307690008B822AB
:10078C00E5297003020028E529B401030208B2E54B
:10079C0029B40203020883E529B403031207AC222F
:0B0857007F0112038D1208780208C414
:0300280002068746
:0B0862007F0A12056212086D0208BB3D
:0308B2000208AA8F
:0308B50002089C9A
:0A08830012000E7F0A7E0002076CCF
:0308B80002089C97
:1007AC00C201E4FD7F011201517FF47E0112076C3E
:1007BC00D201E4FD7F011201517FF47E0102076C2E
:100562008F195389F0438901AF19E4FCFDFEFB7A30
:100572001B79B7F812002EE47BE07A2EF9F812000C
:10058200B9C3E49FFFE49E74019DE49CE48F8AAFAB
:1005920019FCFDFEFB7A1B79B7F812002EE47BE012
:1005A2007A2EF9F81200B9C3E49FFFE49EFE7401AB
:1005B2009DFDE49CFCE4FB7A01F9F81200B98F8CF2
:0705C200C28DD2A9D28C22E8
:1005C9008F18C28DC28CE4FCFDFEFB7A1B79B7F84B
:1005D90012002EE47BE07A2EF9F81200B9C3E49FE9
:1005E900FFE49E74019DE49CE48F8AAF18FCFDFE34
:1005F900FB7A1B79B7F812002EE47BE07A2EF9F822
:100609001200B9C3E49FFFE49EFE74019DFDE49CC2
:0F061900FCE4FB7A01F9F81200B98F8CD28C2225
:0308BB00D2AF2297
:03000B000206D614
:1006D600C0E0C0F0C083C082C0D075D000C000C0EA
:1006E60001C002C003C004C005C006C0077F0A12CD
:1006F60005C912088DD007D006D005D004D003D086
:1007060002D001D000D0D0D082D083D0F0D0E03259
:0408AA00438701225D
:0B086D00E4F52AE52A70031208BE2201
:08088D00E52A70031208C122E4
:0308BE000208A38A
:0308C1000207EB40
:0B07DF00012401012500012600C18457
:0708A3007DFFAF2402081DD8
:1007EB000526E526C394324010B204A2049200AD54
:0A07FB0025AF2412026FE4F5262258
:10081D00EF70038D8022BF01038D9022BF02038DE7
:08082D00A022BF03028DB022DE
:10026F00EF7045ED7005A200928022BD0105A2003E
:10027F00928122BD0205A200928222BD0305A20037
:10028F00928322BD0405A200928422BD0505A2001F
:10029F00928522BD0605A200928622ED64076003B7
:1002AF0002038CA200928722EF64017045ED700566
:1002BF00A200929022BD0105A200929122BD0205DB
:1002CF00A200929222BD0305A200929322BD0405C3
:1002DF00A200929422BD0505A200929522BD0605AB
:1002EF00A200929622ED6407600302038CA2009293
:1002FF009722EF64027042ED7005A20092A022BD1A
:10030F000105A20092A122BD0205A20092A222BD68
:10031F000305A20092A322BD0405A20092A422BD50
:10032F000505A20092A522BD0605A20092A622ED08
:10033F0064077049A20092A722EF6403703FED702B
:10034F0005A20092B022BD0105A20092B122BD020A
:10035F0005A20092B222BD0305A20092B322BD04F2
:10036F0005A20092B422BD0505A20092B522BD06DA
:0E037F0005A20092B622BD0704A20092B7228A
:02038D008F19C6
:10038F00E4F51AAF1A120716051AE51AC3940240BC
:10039F00F2E4F5C8AF19FCFDFEFB7A1B79B7F81232
:1003AF00002EE47BE07A2EF9F81200B9C3E49FFF28
:1003BF00E49EFE74019DFDE49CFCE4FB7A01F9F8D8
:1003CF001200B98FCDAF19E4FCFDFEFB7A1B79B794
:1003DF00F812002EE47BE07A2EF9F81200B9C3E48C
:1003EF009FFFE49E74019DE49CE48FCCAF19FCFD4C
:1003FF00FEFB7A1B79B7F812002EE47BE07A2EF918
:10040F00F81200B9C3E49FFFE49EFE74019DFDE462
:10041F009CFCE4FB7A01F9F81200B98FCBAF19E419
:10042F00FCFDFEFB7A1B79B7F812002EE47BE07A15
:10043F002EF9F81200B9C3E49FFF8FCAC2CFD2AD15
:02044F00D2CA0F
:010451002288
:060628008B198A1A891BE0
:10062E00E4FFEF75F008A42408F808E6FA08E64A95
:10063E006009EFC3940250030F80E7EF6402603845
:10064E00AA1AA91BEF75F008A42408F8A61908A683
:10065E000208A601EF75F008A4240BF8A60408A65C
:10066E0005EF75F008A4240DF8A61E08A61FEF7559
:08067E00F008A4240FF8E4F6D3
:010686002251
:0308C400D2AF228E
:03002B000204DEEE
:1004DE00C0E0C0F0C0D075D000C000C002C004C0E3
:0304EE0005C0073F
:1004F100C2CFE4FFEF75F008A42408F808E6FA0873
:10050100E6AC024C6046EF75F008A4240BF8E6FC5B
:1005110008E64C7028EF75F008A4240FF806EF7573
:10052100F008A4240DF8E6FC08E6FD4C601EEF750A
:10053100F008A4240BF8A60408A605800FEF75F0B7
:1005410008A4240BF808E616187001160FBF02A4C0
:10055100D007D005D004D002D000D0D0D0F0D0E068
:010561003267
:10068700E4F519E51975F008A4240FF8E6D39400EA
:100697004031E51975F008A42408F808E6FA08E6D9
:1006A700F912014BE51975F008A4240FF816E5199E
:1006B70075F008A4240DF8E6FE08E64E7005AF199C
:0F06C7001207160519E519C3940240B70208AED1
:10071600EF75F008A42408F876000876000876003D
:10072600EF75F008A4240BF8E4F608F6EF75F00868
:10073600A4240DF8E4F608F6EF75F008A4240FF8E3
:03074600E4F622B4
:0408AE004387012259
:0B087800E4F52BE52B7003120835227D
:100835001208957BFF7A08794A751E01751FF4E445
:05084500FDFC02062885
:03000000020452A5
:0C045200787FE4F6D8FD75812B02049938
:10002E00E88FF0A4CC8BF0A42CFCE98EF0A42CFC71
:10003E008AF0EDA42CFCEA8EF0A4CDA8F08BF0A4EF
:10004E002DCC3825F0FDE98FF0A42CCD35F0FCEB4E
:10005E008EF0A4FEA9F0EB8FF0A4CFC5F02ECD3913
:0F006E00FEE43CFCEAA42DCE35F0FDE43CFC2280
:10007D0075F008758200EF2FFFEE33FECD33CDCC3A
:10008D0033CCC58233C5829BED9AEC99E5829840BD
:10009D000CF582EE9BFEED9AFDEC99FC0FD5F0D69A
:1000AD00E4CEFBE4CDFAE4CCF9A88222B800C1B9C4
:1000BD000059BA002DEC8BF084CFCECDFCE5F0CB02
:1000CD00F97818EF2FFFEE33FEED33FDEC33FCEB3B
:1000DD0033FB10D703994004EB99FB0FD8E5E4F9F6
:1000ED00FA227818EF2FFFEE33FEED33FDEC33FCE3
:1000FD00C933C910D7059BE99A4007EC9BFCE99AD7
:10010D00F90FD8E0E4C9FAE4CCFB2275F010EF2F1B
:10011D00FFEE33FEED33FDCC33CCC833C810D7071B
:10012D009BEC9AE899400AED9BFDEC9AFCE899F856
:0E013D000FD5F0DAE4CDFBE4CCFAE4C8F922E9
:06014B008A838982E4733F
:10045E00020003E493A3F8E493A34003F68001F2B1
:10046E0008DFF48029E493A3F85407240CC8C3339F
:10047E00C4540F4420C8834004F456800146F6DF6E
:10048E00E4800B01020408102040809007CCE47E2B
:10049E00019360BCA3FF543F30E509541FFEE49363
:1004AE00A360010ECF54C025E060A840B8E493A32A
:1004BE00FAE493A3F8E493A3C8C582C8CAC583CA55
:1004CE00F0A3C8C582C8CAC583CADFE9DEE780BE0D
:0107EA00000E
:00000001FF
