:0800030012077D1207E380FBE8
:1007C300E4FDFCC3ED9FEC9E5015E4FBFA0BBB006C
:0F07D300010AEB647D4A70F50DBD00010C80E456
:0107E20022F4
:04091E007590FF22AF
:03002800B2902271
:03080300012C00C5
:040922007590FF22AB
:0F089500052CE52CC394324005B290E4F52C22DB
:10077D00E4F52DE52D70030208BFE52DB40103024C
:10078D0008CAE52DB40203020940E52DB403031296
:03079D0009262208
:1007E300E52D700302093AE52DB4010302093DE545
:1007F3002DB402030208E0E52DB4030312087122AD
:0B08BF007F011201511207A002094C3A
:03093A0002063B77
:0B08CA007F0A1205161208D502094330
:03093D0002092A82
:0309400002092287
:0A08E0001208957F0A7E000207C38C
:040926007590FF22A7
:10087100D2907FF47E011207C3C2907FF47E010201
:0208810007C3AB
:100516008F215389F0438901AF21E4FCFDFEFB7A6C
:100526001B79B7F812002EE47BE07A2EF9F8120058
:10053600B9C3E49FFFE49E74019DE49CE48F8AAFF7
:1005460021FCFDFEFB7A1B79B7F812002EE47BE056
:100556007A2EF9F81200B9C3E49FFFE49EFE7401F7
:100566009DFDE49CFCE4FB7A01F9F81200B98F8C3E
:07057600C28DD2A9D28C2234
:10057D008F20C28DC28CE4FCFDFEFB7A1B79B7F88F
:10058D0012002EE47BE07A2EF9F81200B9C3E49F35
:10059D00FFE49E74019DE49CE48F8AAF20FCFDFE78
:1005AD00FB7A1B79B7F812002EE47BE07A2EF9F86E
:1005BD001200B9C3E49FFFE49EFE74019DFDE49C0F
:0F05CD00FCE4FB7A01F9F81200B98F8CD28C2272
:03094300D2AF220E
:03000B0002068A60
:10068A00C0E0C0F0C083C082C0D075D000C000C036
:10069A0001C002C003C004C005C006C0077F0A1219
:1006AA00057D120907D007D006D005D004D003D0A3
:1006BA0002D001D000D0D0D082D083D0F0D0E032A6
:04092A0043870122DC
:0B08D500E4F52EE52E70031209462208
:08090700E52E700312094922DC
:0309460002092E75
:030949000208A4FD
:03080600012F00BF
:04092E007590FF229F
:0F08A400052FE52FC394324005B290E4F52F22C3
:020151008F21FC
:10015300E4F522AF221206CA0522E522C394034026
:10016300F2E4F5C8AF21FCFDFEFB7A1B79B7F81268
:10017300002EE47BE07A2EF9F81200B9C3E49FFF66
:10018300E49EFE74019DFDE49CFCE4FB7A01F9F816
:100193001200B98FCDAF21E4FCFDFEFB7A1B79B7CA
:1001A300F812002EE47BE07A2EF9F81200B9C3E4CA
:1001B3009FFFE49E74019DE49CE48FCCAF21FCFD82
:1001C300FEFB7A1B79B7F812002EE47BE07A2EF956
:1001D300F81200B9C3E49FFFE49EFE74019DFDE4A1
:1001E3009CFCE4FB7A01F9F81200B98FCBAF21E450
:1001F300FCFDFEFB7A1B79B7F812002EE47BE07A54
:100203002EF9F81200B9C3E49FFF8FCAC2CFD2AD53
:02021300D2CA4D
:0102150022C6
:0605DC008B218A22892315
:1005E200E4FFEF75F008A42408F808E6FA08E64AE2
:1005F2006009EFC3940350030F80E7EF6403603890
:10060200AA22A923EF75F008A42408F8A62108A6B7
:100612000208A601EF75F008A4240BF8A60408A6A8
:1006220005EF75F008A4240DF8A62608A627EF7595
:08063200F008A4240FF8E4F61F
:01063A00229D
:03094C00D2AF2205
:03002B000203AE1F
:1003AE00C0E0C0F0C0D075D000C000C002C004C014
:0303BE0005C00770
:1003C100C2CFE4FFEF75F008A42408F808E6FA08A4
:1003D100E6AC024C6046EF75F008A4240BF8E6FC8D
:1003E10008E64C7028EF75F008A4240FF806EF75A5
:1003F100F008A4240DF8E6FC08E6FD4C601EEF753C
:10040100F008A4240BF8A60408A605800FEF75F0E8
:1004110008A4240BF808E616187001160FBF03A4F0
:10042100D007D005D004D002D000D0D0D0F0D0E099
:010431003298
:10063B00E4F521E52175F008A4240FF8E6D3940026
:10064B004031E52175F008A42408F808E6FA08E61D
:10065B00F912014BE52175F008A4240FF816E521DA
:10066B0075F008A4240DF8E6FE08E64E7005AF21E0
:0F067B001206CA0521E521C3940340B7020932D4
:1006CA00EF75F008A42408F876000876000876008A
:1006DA00EF75F008A4240BF8E4F608F6EF75F008B5
:1006EA00A4240DF8E4F608F6EF75F008A4240FF830
:0306FA00E4F62201
:0409320043870122D4
:1007A000753003E5307003020848E530B4010302F8
:1007B000081CE530B40203020832E530B40303122A
:0307C000075522B8
:1008480012091E7BFF7A0079287526017527F4E4C2
:05085800FDFC0205DCBF
:10081C001209367BFF7A07792C7526017527F47D32
:06082C00017C000205DC66
:1008320012090F7BFF7A0879837526017527F47DEB
:06084200017C000205DC50
:100755001209197BFF7A0679FD75260075270AE4CB
:10076500FDFC1205DC7BFF7A08795D75260175278E
:08077500F47D017C000205DCAB
:0608090001290001280096
:040936007590FF2297
:10072C00E529D3940750030204ABE529D394105068
:10073C0003020432E529D3941A50030202A2E529DC
:09074C00D3942450031203282267
:1004AB00E52970087528017529018059E529B401E2
:1004BB0008752802752902804CE529B402087528B5
:1004CB0004752903803FE529B403087528087529AD
:1004DB00048032E529B40408752810752905802598
:1004EB00E529B405087528207529068018E529B477
:1004FB000608752840752907800BE529B407067592
:0B050B002880752908E528F4F59022EF
:10043200E529B408087528017529098066E529B4FB
:10044200090875280375290A8059E529B40A08752F
:10045200280675290B804CE529B40B0875280C7504
:10046200290C803FE529B40C0875281875290D80E0
:1004720032E529B40D0875283075290E8025E52945
:10048200B40E0875286075290F8018E529B40F0885
:100492007528C0752910800BE529B41006752880CF
:0904A200752911E528F4F59022FA
:1002A200E529B411087528017529128073E529B46E
:1002B20012087528037529138066E529B413087599
:1002C20028077529148059E529B4140875280E7574
:1002D2002915804CE529B4150875281C7529168046
:1002E2003FE529B416087528387529178032E529A3
:1002F200B417087528707529188025E529B41808DF
:100302007528E07529198018E529B419087528C0DF
:1003120075291A800BE529B41A0675288075291BE0
:06032200E528F4F590222D
:10032800E529B41B0875280175291C8073E529B4D3
:100338001C0875280375291D8066E529B41D0875F4
:10034800280775291E8059E529B41E0875280F75D8
:10035800291F804CE529B41F0875281E752920809F
:100368003FE529B4200875283C7529218032E52904
:10037800B421087528F07529228025E529B42208BA
:100388007528E07529238018E529B423087528C045
:10039800752924800BE529B42406752880E4F529FD
:0603A800E528F4F59022A7
:0A08EA003F065B4F666D7D077F6FD0
:0908FE00EF9008EA93F4F5902252
:03080F00013100B4
:05090F00AF310208FEFB
:10088300AF311208FE0531E531D394094003E4F595
:02089300312210
:0A08F4003F065B4F666D7D077F6FC6
:06081200012A00012B0089
:05091400C2A0C2A122F7
:0C08B300EF7003D2A022BF0102D2A122EC
:10000E00AE90ED9008F493F4FD120914530680534C
:0A001E00057FED42068E900208B344
:03094F008F2B22C9
:1006FD00AD2BE52A7010ED75F00A84ADF07F011277
:10070D00000E752A0122E52AB40113ED75F00A8455
:0E071D0075F00A84ADF0E4FF12000EE4F52A38
:01072B0022AB
:03081800013200AA
:05091900AF3202094F9E
:10085D00AF3212094F740A2532F532D39463400337
:04086D00E4F532225A
:03000000020216E3
:0C021600787FE4F6D8FD75813202025DAD
:10002E00E88FF0A4CC8BF0A42CFCE98EF0A42CFC71
:10003E008AF0EDA42CFCEA8EF0A4CDA8F08BF0A4EF
:10004E002DCC3825F0FDE98FF0A42CCD35F0FCEB4E
:10005E008EF0A4FEA9F0EB8FF0A4CFC5F02ECD3913
:0F006E00FEE43CFCEAA42DCE35F0FDE43CFC2280
:10007D0075F008758200EF2FFFEE33FECD33CDCC3A
:10008D0033CCC58233C5829BED9AEC99E5829840BD
:10009D000CF582EE9BFEED9AFDEC99FC0FD5F0D69A
:1000AD00E4CEFBE4CDFAE4CCF9A88222B800C1B9C4
:1000BD000059BA002DEC8BF084CFCECDFCE5F0CB02
:1000CD00F97818EF2FFFEE33FEED33FDEC33FCEB3B
:1000DD0033FB10D703994004EB99FB0FD8E5E4F9F6
:1000ED00FA227818EF2FFFEE33FEED33FDEC33FCE3
:1000FD00C933C910D7059BE99A4007EC9BFCE99AD7
:10010D00F90FD8E0E4C9FAE4CCFB2275F010EF2F1B
:10011D00FFEE33FEED33FDCC33CCC833C810D7071B
:10012D009BEC9AE899400AED9BFDEC9AFCE899F856
:0E013D000FD5F0DAE4CDFBE4CCFAE4C8F922E9
:06014B008A838982E4733F
:10022200020003E493A3F8E493A34003F68001F2EF
:1002320008DFF48029E493A3F85407240CC8C333DD
:10024200C4540F4420C8834004F456800146F6DFAC
:10025200E4800B0102040810204080900803E47E31
:10026200019360BCA3FF543F30E509541FFEE493A1
:10027200A360010ECF54C025E060A840B8E493A368
:10028200FAE493A3F8E493A3C8C582C8CAC583CA93
:10029200F0A3C8C582C8CAC583CADFE9DEE780BE4B
:01081B0000DC
:00000001FF
