:0804570012042E12046780FB61
:020151008F20FD
:10015300E4F521AF211203D40521E521C394034023
:10016300F2E4F5C8AF20FCFDFEFB7AC079A8F812D3
:10017300002EE47BE07A2EF9F81200B9C3E49FFF66
:10018300E49EFE74019DFDE49CFCE4FB7A01F9F816
:100193001200B98FCDAF20E4FCFDFEFB7AC079A835
:1001A300F812002EE47BE07A2EF9F81200B9C3E4CA
:1001B3009FFFE49E74019DE49CE48FCCAF20FCFD83
:1001C300FEFB7AC079A8F812002EE47BE07A2EF9C0
:1001D300F81200B9C3E49FFFE49EFE74019DFDE4A1
:1001E3009CFCE4FB7A01F9F81200B98FCBAF20E451
:1001F300FCFDFEFB7AC079A8F812002EE47BE07ABE
:100203002EF9F81200B9C3E49FFF8FCAC2CFD2AD53
:02021300D2CA4D
:0102150022C6
:060326008B208A218922D0
:10032C00E4FFEF75F008A42408F808E6FA08E64A9A
:10033C006009EFC3940350030F80E7EF6403603848
:10034C00AA21A922EF75F008A42408F8A62008A673
:10035C000208A601EF75F008A4240BF8A60408A661
:10036C0005EF75F008A4240DF8A62508A626EF7550
:08037C00F008A4240FF8E4F6D8
:010384002256
:03047C00D2AF22DA
:03002B000202A22C
:1002A200C0E0C0F0C0D075D000C000C002C004C021
:0302B20005C0077D
:1002B500C2CFE4FFEF75F008A42408F808E6FA08B1
:1002C500E6AC024C6046EF75F008A4240BF8E6FC9A
:1002D50008E64C7028EF75F008A4240FF806EF75B2
:1002E500F008A4240DF8E6FC08E6FD4C601EEF7549
:1002F500F008A4240BF8A60408A605800FEF75F0F6
:1003050008A4240BF808E616187001160FBF03A4FD
:10031500D007D005D004D002D000D0D0D0F0D0E0A6
:0103250032A5
:10038500E4F520E52075F008A4240FF8E6D39400E1
:100395004031E52075F008A42408F808E6FA08E6D7
:1003A500F912014BE52075F008A4240FF816E52095
:1003B50075F008A4240DF8E6FE08E64E7005AF209A
:0F03C5001203D40520E520C3940340B70204744B
:1003D400EF75F008A42408F8760008760008760083
:1003E400EF75F008A4240BF8E4F608F6EF75F008AE
:1003F400A4240DF8E4F608F6EF75F008A4240FF829
:03040400E4F622F9
:040474004387012297
:04045F000227000070
:040478007590FF225A
:03047F00B2902216
:0B042E00E4F529E529700312043922CF
:08046700E52970031204822252
:0B0439007F0112015112001802047C28
:03048200020385ED
:10001800752A01E52A7003020003E52AB4010312D8
:03002800040722A8
:100003001204787BFF7A04797F7525017526F4E461
:05001300FDFC020326C4
:1004070012046F7BFF7A04791C7525017526F4E4C5
:05041700FDFC020326BC
:03046300012B006A
:05046F00AF2B02044E5A
:10041C00AF2B12044E052BE52BD394094003E4F5C6
:02042C002B2281
:0A0444003F065B4F666D7D077F6F7A
:09044E00EF90044493F4F59022B0
:03000000020216E3
:0C021600787FE4F6D8FD75812B02025DB4
:10002E00E88FF0A4CC8BF0A42CFCE98EF0A42CFC71
:10003E008AF0EDA42CFCEA8EF0A4CDA8F08BF0A4EF
:10004E002DCC3825F0FDE98FF0A42CCD35F0FCEB4E
:10005E008EF0A4FEA9F0EB8FF0A4CFC5F02ECD3913
:0F006E00FEE43CFCEAA42DCE35F0FDE43CFC2280
:10007D0075F008758200EF2FFFEE33FECD33CDCC3A
:10008D0033CCC58233C5829BED9AEC99E5829840BD
:10009D000CF582EE9BFEED9AFDEC99FC0FD5F0D69A
:1000AD00E4CEFBE4CDFAE4CCF9A88222B800C1B9C4
:1000BD000059BA002DEC8BF084CFCECDFCE5F0CB02
:1000CD00F97818EF2FFFEE33FEED33FDEC33FCEB3B
:1000DD0033FB10D703994004EB99FB0FD8E5E4F9F6
:1000ED00FA227818EF2FFFEE33FEED33FDEC33FCE3
:1000FD00C933C910D7059BE99A4007EC9BFCE99AD7
:10010D00F90FD8E0E4C9FAE4CCFB2275F010EF2F1B
:10011D00FFEE33FEED33FDCC33CCC833C810D7071B
:10012D009BEC9AE899400AED9BFDEC9AFCE899F856
:0E013D000FD5F0DAE4CDFBE4CCFAE4C8F922E9
:06014B008A838982E4733F
:10022200020457E493A3F8E493A34003F68001F297
:1002320008DFF48029E493A3F85407240CC8C333DD
:10024200C4540F4420C8834004F456800146F6DFAC
:10025200E4800B010204081020408090045FE47ED9
:10026200019360BCA3FF543F30E509541FFEE493A1
:10027200A360010ECF54C025E060A840B8E493A368
:10028200FAE493A3F8E493A3C8C582C8CAC583CA93
:10029200F0A3C8C582C8CAC583CADFE9DEE780BE4B
:010466000095
:00000001FF
