:100003007F011201511206277BFF7A0579F77515D7
:10001300017516F4E4FDFC12051612062B12057584
:0200230080FB60
:020151008F100D
:10015300E4F511AF111205C40511E511C394014073
:10016300F2E4F5C8AF10FCFDFEFB7AC079A8F812E3
:10017300002EE47BE07A2EF9F81200B9C3E49FFF66
:10018300E49EFE74019DFDE49CFCE4FB7A01F9F816
:100193001200B98FCDAF10E4FCFDFEFB7AC079A845
:1001A300F812002EE47BE07A2EF9F81200B9C3E4CA
:1001B3009FFFE49E74019DE49CE48FCCAF10FCFD93
:1001C300FEFB7AC079A8F812002EE47BE07A2EF9C0
:1001D300F81200B9C3E49FFFE49EFE74019DFDE4A1
:1001E3009CFCE4FB7A01F9F81200B98FCBAF10E461
:1001F300FCFDFEFB7AC079A8F812002EE47BE07ABE
:100203002EF9F81200B9C3E49FFF8FCAC2CFD2AD53
:02021300D2CA4D
:0102150022C6
:060516008B108A1189120E
:10051C00E4FFEF75F008A42408F808E6FA08E64AA8
:10052C006009EFC3940150030F80E7EF640160385A
:10053C00AA11A912EF75F008A42408F8A61008A6B1
:10054C000208A601EF75F008A4240BF8A60408A66F
:10055C0005EF75F008A4240DF8A61508A616EF757E
:08056C00F008A4240FF8E4F6E6
:010574002264
:03062B00D2AF2229
:03002B000203AE1F
:1003AE00C0E0C0F0C0D075D000C000C002C004C014
:0303BE0005C00770
:1003C100C2CFE4FFEF75F008A42408F808E6FA08A4
:1003D100E6AC024C6046EF75F008A4240BF8E6FC8D
:1003E10008E64C7028EF75F008A4240FF806EF75A5
:1003F100F008A4240DF8E6FC08E6FD4C601EEF753C
:10040100F008A4240BF8A60408A605800FEF75F0E8
:1004110008A4240BF808E616187001160FBF01A4F2
:10042100D007D005D004D002D000D0D0D0F0D0E099
:010431003298
:10057500E4F510E51075F008A4240FF8E6D394000F
:100585004031E51075F008A42408F808E6FA08E6F5
:10059500F912014BE51075F008A4240FF816E510C3
:1005A50075F008A4240DF8E6FE08E64E7005AF10B8
:0F05B5001205C40510E510C3940140B7020025DC
:1005C400EF75F008A42408F8760008760008760091
:1005D400EF75F008A4240BF8E4F608F6EF75F008BC
:1005E400A4240DF8E4F608F6EF75F008A4240FF837
:0305F400E4F62208
:0400250043870122EA
:06062000011800011700A3
:040627007590FF22A9
:1005F700E518D3940750030204ABE518D3941050C1
:1006070003020432E518D3941A50030202A2E51834
:09061700D394245003120328229D
:1004AB00E51870087517017518018059E518B40126
:1004BB0008751702751802804CE518B402087517F9
:1004CB0004751803803FE518B403087517087518F1
:1004DB00048032E518B404087517107518058025CB
:1004EB00E518B405087517207518068018E518B4BB
:1004FB000608751740751807800BE518B4070675C5
:0B050B001780751808E517F4F5902222
:10043200E518B408087517017518098066E518B43F
:10044200090875170375180A8059E518B40A087562
:10045200170675180B804CE518B40B0875170C7548
:10046200180C803FE518B40C0875171875180D8024
:1004720032E518B40D0875173075180E8025E51889
:10048200B40E0875176075180F8018E518B40F08B8
:100492007517C0751810800BE518B4100675178013
:0904A200751811E517F4F590221C
:1002A200E518B411087517017518128073E518B4B2
:1002B20012087517037518138066E518B4130875CC
:1002C20017077518148059E518B4140875170E75B8
:1002D2001815804CE518B4150875171C751816808A
:1002E2003FE518B416087517387518178032E518E7
:1002F200B417087517707518188025E518B4180812
:100302007517E07518198018E518B419087517C023
:1003120075181A800BE518B41A0675178075181B24
:06032200E517F4F590223E
:10032800E518B41B0875170175181C8073E518B417
:100338001C0875170375181D8066E518B41D087527
:10034800170775181E8059E518B41E0875170F751C
:10035800181F804CE518B41F0875171E75182080E3
:100368003FE518B4200875173C7518218032E51848
:10037800B421087517F07518228025E518B42208ED
:100388007517E07518238018E518B423087517C089
:10039800751824800BE518B42406751780E4F51841
:0603A800E517F4F59022B8
:03000000020216E3
:0C021600787FE4F6D8FD75811802025DC7
:10002E00E88FF0A4CC8BF0A42CFCE98EF0A42CFC71
:10003E008AF0EDA42CFCEA8EF0A4CDA8F08BF0A4EF
:10004E002DCC3825F0FDE98FF0A42CCD35F0FCEB4E
:10005E008EF0A4FEA9F0EB8FF0A4CFC5F02ECD3913
:0F006E00FEE43CFCEAA42DCE35F0FDE43CFC2280
:10007D0075F008758200EF2FFFEE33FECD33CDCC3A
:10008D0033CCC58233C5829BED9AEC99E5829840BD
:10009D000CF582EE9BFEED9AFDEC99FC0FD5F0D69A
:1000AD00E4CEFBE4CDFAE4CCF9A88222B800C1B9C4
:1000BD000059BA002DEC8BF084CFCECDFCE5F0CB02
:1000CD00F97818EF2FFFEE33FEED33FDEC33FCEB3B
:1000DD0033FB10D703994004EB99FB0FD8E5E4F9F6
:1000ED00FA227818EF2FFFEE33FEED33FDEC33FCE3
:1000FD00C933C910D7059BE99A4007EC9BFCE99AD7
:10010D00F90FD8E0E4C9FAE4CCFB2275F010EF2F1B
:10011D00FFEE33FEED33FDCC33CCC833C810D7071B
:10012D009BEC9AE899400AED9BFDEC9AFCE899F856
:0E013D000FD5F0DAE4CDFBE4CCFAE4C8F922E9
:06014B008A838982E4733F
:10022200020003E493A3F8E493A34003F68001F2EF
:1002320008DFF48029E493A3F85407240CC8C333DD
:10024200C4540F4420C8834004F456800146F6DFAC
:10025200E4800B0102040810204080900620E47E16
:10026200019360BCA3FF543F30E509541FFEE493A1
:10027200A360010ECF54C025E060A840B8E493A368
:10028200FAE493A3F8E493A3C8C582C8CAC583CA93
:10029200F0A3C8C582C8CAC583CADFE9DEE780BE4B
:0106260000D3
:00000001FF
