:1000F90057656C636F6D6520746F2038303531201A
:1001090053657269616C20436F6D6D2C2054797051
:100119006520746865206368617220746F20626568
:0A012900206563686F65643A2000EA
:100165008E428F43759850758920758DFDD28E22EC
:080181008F993099FDC299220B
:080189003098FDC298AF9922E5
:1001330078087C007D007BFF7A0079F97E007F3AA6
:100143001200D37F807E25120165E4FE74082EF829
:10015300E6FF60061201810E80F21201891201810D
:0201630080F822
:0300000002017585
:0C017500787FE4F6D8FD75814302013369
:10000300E709F608DFFA8046E709F208DFFA803EDF
:1000130088828C83E709F0A3DFFA8032E309F608CC
:10002300DFFA8078E309F208DFFA807088828C8334
:10003300E309F0A3DFFA806489828A83E0A3F608E8
:10004300DFFA805889828A83E0A3F208DFFA804CC2
:1000530080D280FA80C680D4806980F28033801099
:1000630080A680EA809A80A880DA80E280CA803302
:1000730089828A83ECFAE493A3C8C582C8CCC5837A
:10008300CCF0A3C8C582C8CCC583CCDFE9DEE7804A
:100093000D89828A83E493A3F608DFF9ECFAA9F0C9
:1000A300EDFB2289828A83ECFAE0A3C8C582C8CC1F
:1000B300C583CCF0A3C8C582C8CCC583CCDFEADE38
:1000C300E880DB89828A83E493A3F208DFF980CC9A
:1000D30088F0EF60010E4E60C388F0ED2402B40493
:1000E3000050B9F582EB2402B4040050AF2323453A
:0600F3008223900053730C
:00000001FF
