:10049A007F011201A61205527BFF7A03797B751D33
:1004AA0000751E0AE4FDFC1203EC7BFF7A00790357
:1004BA00751D01751EF4E4FDFC1203EC12002812EE
:0404CA00044B80FB64
:0201A6008F18B0
:1001A800E4F519AF191204CE0519E519C3940240F4
:1001B800F2E4F5C8AF18FCFDFEFB7AC079A8F81286
:1001C8000083E47BE07A2EF9F812010EC3E49FFF66
:1001D800E49EFE74019DFDE49CFCE4FB7A01F9F8C1
:1001E80012010E8FCDAF18E4FCFDFEFB7AC079A892
:1001F800F8120083E47BE07A2EF9F812010EC3E4CA
:100208009FFFE49E74019DE49CE48FCCAF18FCFD35
:10021800FEFB7AC079A8F8120083E47BE07A2EF915
:10022800F812010EC3E49FFFE49EFE74019DFDE4F5
:100238009CFCE4FB7A01F9F812010E8FCBAF18E4AD
:10024800FCFDFEFB7AC079A8F8120083E47BE07A13
:100258002EF9F812010EC3E49FFF8FCAC2CFD2ADA8
:02026800D2CAF8
:01026A002271
:0603EC008B188A19891A22
:1003F200E4FFEF75F008A42408F808E6FA08E64AD4
:100402006009EFC3940250030F80E7EF6402603883
:10041200AA19A91AEF75F008A42408F8A61808A6C4
:100422000208A601EF75F008A4240BF8A60408A69A
:1004320005EF75F008A4240DF8A61D08A61EEF7599
:08044200F008A4240FF8E4F611
:01044A00228F
:03002800D2AF2232
:03002B000202F7D7
:1002F700C0E0C0F0C0D075D000C000C002C004C0CC
:0303070005C00727
:10030A00C2CFE4FFEF75F008A42408F808E6FA085B
:10031A00E6AC024C6046EF75F008A4240BF8E6FC44
:10032A0008E64C7028EF75F008A4240FF806EF755C
:10033A00F008A4240DF8E6FC08E6FD4C601EEF75F3
:10034A00F008A4240BF8A60408A605800FEF75F0A0
:10035A0008A4240BF808E616187001160FBF02A4A9
:10036A00D007D005D004D002D000D0D0D0F0D0E051
:01037A003250
:10044B00E4F518E51875F008A4240FF8E6D394002A
:10045B004031E51875F008A42408F808E6FA08E618
:10046B00F91201A0E51875F008A4240FF816E51889
:10047B0075F008A4240DF8E6FE08E64E7005AF18DB
:0F048B001204CE0518E518C3940240B702055EAF
:1004CE00EF75F008A42408F8760008760008760088
:1004DE00EF75F008A4240BF8E4F608F6EF75F008B3
:1004EE00A4240DF8E4F608F6EF75F008A4240FF82E
:0304FE00E4F622FF
:04055E0043870122AC
:0A053F003F065B4F666D7D077F6F7E
:07053300011F00022000007F
:09054900C2A0C2A1C2A2C2A322F9
:10051B00EF7003D2A022BF0103D2A122BF0203D2EC
:08052B00A222BF0302D2A322A9
:10050100AE90ED90053F93F4FD12054953068053DB
:0A051100057FED42068E9002051BE7
:050559008E208F21221D
:10037B00AF21AE20E51F7011FC7D0A12002EAE04DA
:10038B007F03120501751F0122E51FB401197C00C3
:10039B007D0A12002E7C007D0A12002EAE047F0215
:1003AB00120501751F0222E51FB402197C007D6442
:1003BB0012002E7C007D0A12002EAE047F01120566
:1003CB0001751F0322E51FB403167C037DE81200A1
:1003DB002E7C007D0A12002EE4FF120501E4F51FAE
:0103EB0022EF
:04053A000222007B1E
:07055200AF23AE22020559A0
:10000300AF23AE2212055974E82523F52374033573
:1000130022F522D3E523940FE52294274006752287
:050023000075237B22A3
:0300000002026B8E
:0C026B00787FE4F6D8FD7581230202B212
:10002E00BC000BBE0029EF8DF084FFADF022E4CCB6
:10003E00F875F008EF2FFFEE33FEEC33FCEE9DEC7F
:10004E00984005FCEE9DFE0FD5F0E9E4CEFD22EDC5
:10005E00F8F5F0EE8420D21CFEADF075F008EF2F0F
:10006E00FFED33FD4007985006D5F0F222C398FD00
:05007E000FD5F0EA229D
:10008300E88FF0A4CC8BF0A42CFCE98EF0A42CFC1C
:100093008AF0EDA42CFCEA8EF0A4CDA8F08BF0A49A
:1000A3002DCC3825F0FDE98FF0A42CCD35F0FCEBF9
:1000B3008EF0A4FEA9F0EB8FF0A4CFC5F02ECD39BE
:0F00C300FEE43CFCEAA42DCE35F0FDE43CFC222B
:1000D20075F008758200EF2FFFEE33FECD33CDCCE5
:1000E20033CCC58233C5829BED9AEC99E582984068
:1000F2000CF582EE9BFEED9AFDEC99FC0FD5F0D645
:10010200E4CEFBE4CDFAE4CCF9A88222B800C1B96E
:100112000059BA002DEC8BF084CFCECDFCE5F0CBAC
:10012200F97818EF2FFFEE33FEED33FDEC33FCEBE5
:1001320033FB10D703994004EB99FB0FD8E5E4F9A0
:10014200FA227818EF2FFFEE33FEED33FDEC33FC8D
:10015200C933C910D7059BE99A4007EC9BFCE99A81
:10016200F90FD8E0E4C9FAE4CCFB2275F010EF2FC6
:10017200FFEE33FEED33FDCC33CCC833C810D707C6
:100182009BEC9AE899400AED9BFDEC9AFCE899F801
:0E0192000FD5F0DAE4CDFBE4CCFAE4C8F92294
:0601A0008A838982E473EA
:1002770002049AE493A3F8E493A34003F68001F2FF
:1002870008DFF48029E493A3F85407240CC8C33388
:10029700C4540F4420C8834004F456800146F6DF57
:1002A700E4800B0102040810204080900533E47EAF
:1002B700019360BCA3FF543F30E509541FFEE4934C
:1002C700A360010ECF54C025E060A840B8E493A313
:1002D700FAE493A3F8E493A3C8C582C8CAC583CA3E
:1002E700F0A3C8C582C8CAC583CADFE9DEE780BEF6
:01053E0000BC
:00000001FF
