:0800230012054512059280FB55
:10000300E4FDFCC3ED9FEC9E5015E4FBFA0BBB0033
:0F001300010AEB647D4A70F50DBD00010C80E41D
:0100220022BB
:0B05E000E4F514E51470031205AA22D4
:1005AA001206007BFF7A0579D3750D01750EF4E406
:0505BA00FDFC020444F9
:10057A00EF70038D8022BF01038D9022BF02038D8D
:08058A00A022BF03028DB02284
:10015100EF7045ED7005A202928022BD0105A20259
:10016100928122BD0205A202928222BD0305A20252
:10017100928322BD0405A202928422BD0505A2023A
:10018100928522BD0605A202928622ED64076003D4
:1001910002026EA202928722EF64017045ED7005A2
:1001A100A202929022BD0105A202929122BD0205F6
:1001B100A202929222BD0305A202929322BD0405DE
:1001C100A202929422BD0505A202929522BD0605C6
:1001D100A202929622ED6407600302026EA20292CD
:1001E1009722EF64027042ED7005A20292A022BD37
:1001F1000105A20292A122BD0205A20292A222BD84
:100201000305A20292A322BD0405A20292A422BD6B
:100211000505A20292A522BD0605A20292A622ED23
:1002210064077049A20292A722EF6403703FED7048
:1002310005A20292B022BD0105A20292B122BD0225
:1002410005A20292B222BD0305A20292B322BD040D
:1002510005A20292B422BD0505A20292B522BD06F5
:0E02610005A20292B622BD0704A20292B722A5
:02026F008F08F6
:10027100E4F509AF091204F20509E509C394084040
:10028100F2E4F5C8AF08FCFDFEFB7A1B79B7F81262
:10029100002EE47BE07A2EF9F81200B9C3E49FFF47
:1002A100E49EFE74019DFDE49CFCE4FB7A01F9F8F7
:1002B1001200B98FCDAF08E4FCFDFEFB7A1B79B7C4
:1002C100F812002EE47BE07A2EF9F81200B9C3E4AB
:1002D1009FFFE49E74019DE49CE48FCCAF08FCFD7C
:1002E100FEFB7A1B79B7F812002EE47BE07A2EF937
:1002F100F81200B9C3E49FFFE49EFE74019DFDE482
:100301009CFCE4FB7A01F9F81200B98FCBAF08E449
:10031100FCFDFEFB7A1B79B7F812002EE47BE07A34
:100321002EF9F81200B9C3E49FFF8FCAC2CFD2AD34
:02033100D2CA2E
:0103330022A7
:060444008B088A09890AF9
:10044A00E4FFEF75F008A42421F808E6FA08E64A62
:10045A006009EFC3940850030F80E7EF640860381F
:10046A00AA09A90AEF75F008A42421F8A60808A683
:10047A000208A601EF75F008A42424F8A60408A629
:10048A0005EF75F008A42426F8A60D08A60EEF7548
:08049A00F008A42428F8E4F6A0
:0104A2002237
:03061200D2AF2242
:03002B000203C00D
:1003C000C0E0C0F0C0D075D000C000C002C004C002
:0303D00005C0075E
:1003D300C2CFE4FFEF75F008A42421F808E6FA0879
:1003E300E6AC024C6046EF75F008A42424F8E6FC62
:1003F30008E64C7028EF75F008A42428F806EF757A
:10040300F008A42426F8E6FC08E6FD4C601EEF7510
:10041300F008A42424F8A60408A605800FEF75F0BD
:1004230008A42424F808E616187001160FBF08A4C0
:10043300D007D005D004D002D000D0D0D0F0D0E087
:010443003286
:1004A300E4F508E50875F008A42428F8E6D39400D9
:1004B3004031E50875F008A42421F808E6FA08E6B7
:1004C300F912014BE50875F008A42428F816E5088D
:1004D30075F008A42426F8E6FE08E64E7005AF087A
:0F04E3001204F20508E508C3940840B702060E9C
:1004F200EF75F008A42421F876000876000876004B
:10050200EF75F008A42424F8E4F608F6EF75F00875
:10051200A42426F8E4F608F6EF75F008A42428F8D7
:03052200E4F622DA
:04060E0043870122FB
:10054500751501E51570030205EBE515B401030208
:0B0555000618E515B4020312061B2275
:10059200E5157003020615E515B401030205F6E53B
:0805A20015B402031205252225
:0B05EB007F0112026F1205E0020612F1
:030615000204A339
:03061800020607D0
:0A05F6001205607F0A7E0002000378
:03061B00020607CD
:10052500C202E4FD7F011201517FF47E0112000336
:10053500D202E4FD7F011201517FF47E0102000326
:0805BF00011201011300C180CB
:070600007DFFAF1202057A35
:0D05D300B200A2009202AD13AF120201515E
:0B05C700010F01011000011100C181B3
:070607007DFFAF0F02057A31
:100560000511E511C394324010B201A2019202AD0F
:0A05700010AF0F120151E4F5112243
:03000000020334C4
:0C033400787FE4F6D8FD75816002037B41
:10002E00E88FF0A4CC8BF0A42CFCE98EF0A42CFC71
:10003E008AF0EDA42CFCEA8EF0A4CDA8F08BF0A4EF
:10004E002DCC3825F0FDE98FF0A42CCD35F0FCEB4E
:10005E008EF0A4FEA9F0EB8FF0A4CFC5F02ECD3913
:0F006E00FEE43CFCEAA42DCE35F0FDE43CFC2280
:10007D0075F008758200EF2FFFEE33FECD33CDCC3A
:10008D0033CCC58233C5829BED9AEC99E5829840BD
:10009D000CF582EE9BFEED9AFDEC99FC0FD5F0D69A
:1000AD00E4CEFBE4CDFAE4CCF9A88222B800C1B9C4
:1000BD000059BA002DEC8BF084CFCECDFCE5F0CB02
:1000CD00F97818EF2FFFEE33FEED33FDEC33FCEB3B
:1000DD0033FB10D703994004EB99FB0FD8E5E4F9F6
:1000ED00FA227818EF2FFFEE33FEED33FDEC33FCE3
:1000FD00C933C910D7059BE99A4007EC9BFCE99AD7
:10010D00F90FD8E0E4C9FAE4CCFB2275F010EF2F1B
:10011D00FFEE33FEED33FDCC33CCC833C810D7071B
:10012D009BEC9AE899400AED9BFDEC9AFCE899F856
:0E013D000FD5F0DAE4CDFBE4CCFAE4C8F922E9
:06014B008A838982E4733F
:10034000020023E493A3F8E493A34003F68001F2B0
:1003500008DFF48029E493A3F85407240CC8C333BE
:10036000C4540F4420C8834004F456800146F6DF8D
:10037000E4800B01020408102040809005BFE47E59
:10038000019360BCA3FF543F30E509541FFEE49382
:10039000A360010ECF54C025E060A840B8E493A349
:1003A000FAE493A3F8E493A3C8C582C8CAC583CA74
:1003B000F0A3C8C582C8CAC583CADFE9DEE780BE2C
:0105D2000028
:00000001FF
